:020000040800F2
:10000000D081002065030008AF1F00089518000884
:10001000A11F0008C1170008A52700080000000064
:10002000000000000000000000000000A502000821
:10003000C31700080000000001030008AD220008FB
:100040007F0300087F0300087F0300087F03000888
:100050007F0300087F0300087F0300087F03000878
:100060007F0300087F0300087F0300087F03000868
:100070007F0300087F0300087F0300087F03000858
:100080007F0300087F0300087F03000800000000D2
:100090000000000000000000000000007F030008D6
:1000A0007F0300087F0300087F0300087F03000828
:1000B0007F030008352300087F0300087F03000842
:1000C0007F0300087F0300087F0300087F03000808
:1000D0007F030008392300083D24000800000000C9
:1000E0007F0300087F0300087F0300080000000072
:1000F0000000000000000000000000007F03000876
:10010000000000007F0300087F0300087F03000851
:1001100000000000000000000000000000000000DF
:100120007F0300087F0300087F0300087F030008A7
:100130007F03000800000000000000000000000035
:100140000000000000000000000000007F03000825
:100150007F0300087F0300087F030008452500088F
:100160007F0300087F03000800000000000000007B
:10017000000000000000000000000000000000007F
:10018000000000007F0300080000000000000000E5
:100190007F0300087F03000800F002F800F072F807
:1001A0000AA090E8000C82448344AAF10107DA45D2
:1001B00001D100F067F8AFF2090EBAE80F0013F0B2
:1001C000010F18BFFB1A43F0010318473864000001
:1001D000586400000A444FF0000C10F8013B13F083
:1001E000070408BF10F8014B1D1108BF10F8015B90
:1001F000641E05D010F8016B641E01F8016BF9D183
:1002000013F0080F1EBF10F8014BAD1C0C1B09D1D9
:100210006D1E58BF01F801CBFAD505E014F8016B4B
:1002200001F8016B6D1EF9D59142D6D370470000DD
:100230000023002400250026103A28BF78C1FBD8EF
:10024000520728BF30C148BF0B607047662906F0CF
:10025000B680642900F0DE80782900F017816329D8
:1002600000F00585002070471FB506F09EF800F0ED
:100270004FFD04000020002105F062FAE0601FBD80
:1002800010B510BD00F060FE1146FFF7EDFF03F062
:100290004BFC00F07EFE03B4FFF7F2FF03BC03F05B
:1002A0005AFA00002C4B19680868B0E8F04F80F348
:1002B0000988BFF36F8F4FF0000080F311887047FB
:1002C0000000000008480068006880F308884FF0CC
:1002D000000080F3148862B661B6BFF34F8FBFF39E
:1002E0006F8F00DF00BF00BF08ED00E0DFF80C00FB
:1002F000016841F470010160704700BF88ED00E0C3
:10030000EFF30980BFF36F8F134B1A681EF0100FC5
:1003100008BF20ED108A20E9F04F106009B44FF0BB
:10032000500080F31188BFF34F8FBFF36F8F04F03D
:1003300083FC4FF0000080F3118809BC196808683D
:10034000B0E8F04F1EF0100F08BFB0EC108A80F339
:100350000988BFF36F8F704788010020EFF3058095
:10036000704700000948804709480047FEE7FEE75C
:10037000FEE7FEE7FEE7FEE7FEE7FEE7FEE7FEE755
:1003800004480549054A064B70470000D922000879
:1003900099010008D07B0020D0810020D07D002072
:1003A000D07D0020704700000FB4044910B503AAA7
:1003B000029800F069FC10BC5DF814FB48010020B5
:1003C00070B50C460546012A05D02878800600D570
:1003D000EA69002302E0012305E05B1C934202D29C
:1003E000E05C0028F9D1A869E618C01AA861286A5B
:1003F000184428622846AFF3008004E0D5E90121C3
:1004000014F8010B9047B442F8D32846AFF30080AC
:1004100070BD00002DE9F0410646002410687529E2
:10042000314616A510D0AFF30080002802DA404212
:1004300013A507E031688A0701D512A502E0490734
:1004400004D511A5012401E0AFF3008000210A22A8
:1004500006F1240709E0B0FBF2FCB0FBF2F302FB6B
:100460001C00303078541846491C0028F3D123462C
:100470002A463046BDE8F04100F089B9000000008E
:100480002D0000002B0000002000000070B5044685
:100490000D4621461068AFF300802188090502D57A
:1004A0000F4A7A4402E00E4A7A440E32002104F1E7
:1004B000240305E000F00F060009965D5E54491C18
:1004C0000028F7D120780023000704D5702D02D032
:1004D00009B1022311322046BDE8704000F057B93F
:1004E0000C6000002DE9F0474FF0000A89460446F1
:1004F000C0F820A02046E1688847002876D025284B
:1005000006D0D4E901219047206A401C2062F1E71F
:10051000E168204600268847C4F81CA0054600274D
:10052000C4F818A02A2D09D0284603F00DF938B3D5
:1005300004EB8708303DC8F8185019E059F8041B3F
:10054000204604EB87029161E1688847012F054648
:1005500018D1E069002820DA26F020061DE0D8F83E
:10056000180000EB800005EB40003038C8F8180098
:100570002046E1688847054603F0E6F80028EED1FA
:10058000012F0AD02E2D08D12046E16888477F1C14
:100590000546022F46F02006C4DBA069002803DAD6
:1005A000404246F00106A061F00701D026F0100697
:1005B0006C2D0AD0682D08D04C2D39D06A2D35D03D
:1005C000742D35D07A2D33D016E0E1682F462046C1
:1005D0008847B84205460AD16C2F27D04FF4806077
:1005E000E168064320468847054605E027E06C2F72
:1005F0001AD04FF4807006430DB3A5F141001928BD
:1006000002D8203546F400664A4629462046266030
:100610004E46FFF71BFE80B101280BD0F61D26F0D9
:10062000070000F1080965E74020E4E78020D7E7EC
:100630000020D5E706F104095CE7284661E7206A57
:10064000BDE8F087032A40F2308010F0030C00F080
:10065000158011F8013BBCF1020F624498BF11F8FC
:1006600001CB00F8013B38BF11F8013BA2F10402B5
:1006700098BF00F801CB38BF00F8013B11F003032D
:1006800000F01483083AC0F0088051F8043B083A9F
:1006900051F804CBA0E80810F5E7121D5CBF51F833
:1006A000043B40F8043BAFF30080D20724BF11F8AD
:1006B000013B11F801CB48BF11F8012B24BF00F812
:1006C000013B00F801CB48BF00F8012B704702F056
:1006D000FF0343EA032242EA024200F002B84FF06D
:1006E00000020429C0F0128010F0030C00F01B80FF
:1006F000CCF1040CBCF1020F18BF00F8012BA8BF0D
:1007000020F8022BA1EB0C0100F00DB85FEAC17CD0
:1007100024BF00F8012B00F8012B48BF00F8012B83
:1007200070474FF0000200B51346944696462039B4
:1007300022BFA0E80C50A0E80C50B1F12001BFF49A
:10074000F7AF090728BFA0E80C5048BF0CC05DF800
:1007500004EB890028BF40F8042B08BF704748BF4E
:1007600020F8022B11F0804F18BF00F8012B7047C2
:10077000704770477047704710B500F0CDFA0068B9
:1007800010BD10B5044600F0C7FA046010BD2DE995
:10079000F0470D4699469246044600F12408016848
:1007A000880604D5E06921F01001216000E00120F5
:1007B000A84201DD471B00E00027A1697A1902EB7E
:1007C0000900081AA0612078C00602D42046AFF3C1
:1007D0000080002608E0D4E901211AF806009047BD
:1007E000206A401C761C20624E45F4DB2078C0064F
:1007F0000AD52046AFF3008006E0D4E9012130207D
:100800009047206A401C2062381EA7F10107F4DCE3
:1008100007E0D4E9012118F805009047206A401C40
:100820002062281EA5F10105F3DC2046AFF300800D
:100830002078000602D50220BDE8F0870120FBE702
:1008400070472DE9FF4F0C461E464FF0FF378BB027
:10085000D2E90001DDF860800A908A46C1F30A55AA
:1008600005B93D46002108464FF00000BAF1000FDF
:1008700000F4400005DA00EB80004FF4400101EA8B
:1008800050004FEA9059B9F1010F00DDB9460A98BE
:1008900050EA4A000ED044F61050A5F2FF35454309
:1008A0002F14B8F1000F1ED07542291E1EDDC9F1AC
:1008B00000021CE0B8F1010F4FF0000001D0302120
:1008C00003E0F24305E02154401CB042FBDB30461C
:1008D0000022002121540B99C1F80880C1E90020B1
:1008E0000FB0BDE8F08FBD1B6D1CDEE74A4600DA95
:1008F000694206A800F0B2FA06AB93E8070003AB22
:1009000083E8070050460A9900F08CFB8DE8070049
:10091000A0F500501F3800900398002D09DD42F229
:100920001F014A46084403A90390684600F0EBFD06
:1009300008E0A0F500504A461F3803A90390684616
:1009400000F0F5FD8DE807000004000C03D04FF027
:10095000FF30410800E01046B8F1000F03D000223C
:10096000009215461EE0751E05D400F0D9F930320C
:1009700062556D1EF9D5B3460122084302D000220C
:100980007F1C04E02078302801D100227F1E002A3D
:10099000099786D01DE0112D07DA00F0C1F9303239
:1009A00062556D1C50EA0102F5D1084302D000984F
:1009B000C8B10EE00021681E05E0235C625C635450
:1009C0002254401E491C8142F7DBAB46A81B401E47
:1009D0000990002004F80B000B98099AC0F80880D1
:1009E000C0E9002B7CE711264FF0000859E72DE9FC
:1009F000F04F88460446D21D22F0070191B0D1E99C
:100A00000001CDE90A0101F08DFF02460B98C00FED
:100A100001D02D2007E02068810701D52B2002E0BE
:100A2000202101EAC000032A099001D0072A05DB32
:100A300003464146204600F0D1F90BE120788006BC
:100A400001D5E06900E00620B8F1650F814606D0C7
:100A5000B8F1660F18D0B8F1670F70D131E00020FF
:100A6000B9F1110F009001DB112301E009F101033D
:100A70000AAA01A90CA8FFF7E4FEDDE90C70002624
:100A800009F10105834647E001204B4600904FF0F5
:100A900000470AAA01A90CA8FFF7D3FEDDE90DB0B3
:100AA0000C995D46002610B909F101000D18B9EB4B
:100AB000050003D4C0F1FF3609F10105A5EB0900DB
:100AC0002BE0B9F1010F01DA4FF001090020B9F173
:100AD000110F0090484601DD112300E003460AAAE9
:100AE00001A90CA8FFF7ADFEDDE90C704D4600260C
:100AF0008346207800070AD4AB4500DA5D4601A89A
:100B0000012D04DD411911F8011C302907D04F4592
:100B100002DA17F1040F04DA012082460FE06D1E9D
:100B2000EEE7002F02DCED1B3E4403E0781CA842F8
:100B300000DD7D1CB81B00F1010A4FF00047207852
:100B4000000703D4AA4501DB4FF0FF3A0021B7F1BB
:100B5000004F0DF143088DF8431024D002202B23C1
:100B6000002F01DA7F422D230A21021EA0F101008D
:100B700000DC5FB197FBF1FC97FBF1F201FB1C7C01
:100B800017460CF1300C08F801CDEEE7A8F1010092
:100B900003702188090501D5452100E06521A0F1F8
:100BA000010800F8011C09980FA9A1EB0807FF1D17
:100BB00000B10120411901EBEA70A1693844081A1B
:100BC000401EA0612078C00602D42046AFF300800A
:100BD000099828B1D4E901219047206A401C20627D
:100BE0002078C00622D52046AFF300801EE0002EFC
:100BF00004DBB34502DD01A8805D00E03020D4E9CC
:100C000001219047206A401C2062761CAAF1010055
:100C10005FEA000A0AD100F07BF8C0680168405C16
:100C2000D4E901219047206A401C2062281EA5F1CA
:100C30000105DCDC07E0D4E9012118F8010B90473D
:100C4000206A401C2062381EA7F10107F3DC204611
:100C5000AFF30080032011B043E610B5436913B130
:100C6000AFF3008001E0FFF7ABFB012010BD12786D
:100C700000F124010A7000224A700122EDE7116898
:100C80004FF0FF32E9E70000074B70B50D467B449B
:100C900000F091F80446284600F04EF910B14FF0EC
:100CA000FF3070BD204670BDEF2D000010B5203A1A
:100CB000C0F00B80B1E81850203AA0E81850B1E815
:100CC0001850A0E81850BFF4F5AF5FEA027C24BFCB
:100CD000B1E81850A0E8185044BF18C918C0BDE8C2
:100CE00010405FEA827C24BF51F8043B40F8043B8B
:100CF00008BF7047D20728BF31F8023B48BF11F840
:100D0000012B28BF20F8023B48BF00F8012B704799
:100D100000487047907B002000487047707B00209F
:100D200030B5B0F10A024FEA900E71F100034EEABD
:100D3000817EB0EB0E0061EB91014FEA101E4EEA8E
:100D4000017E10EB0E0041EB11114FEA102E4EEA1E
:100D5000016E10EB0E0041EB11214FEA104E4EEAEE
:100D6000014E10EB0E0041EB1141401841F1000122
:100D70004FEAD00040EA41704FEAD10110EB800504
:100D80004FEA810444EA907444EB01046D1944EB8A
:100D90000404521BA3414FF0000348BF0A3200D5A0
:100DA00030BD401C41F1000130BD000001694A1C0A
:100DB00002610878704700B58FB0CDE9013100219C
:100DC000059105497944CDE9031011466846FFF7BE
:100DD00089FB0FB000BD0000E5FFFFFF2DE9F041EA
:100DE0001F46044603260168072A01F4006004DB5D
:100DF00008B116A505E016A503E008B115A500E0A9
:100E000015A521F010002060A069C01EA0610FB1DF
:100E1000401EA0612046AFF300804FB1D4E901210C
:100E200038469047206A401C2062C01C206206E0C1
:100E3000206AFAE7D4E9012115F8010B9047761EE4
:100E4000F8D22046AFF30080BDE8F0814E414E005D
:100E50006E616E00494E4600696E66002DE9F047EE
:100E6000814616468AB0334878440DC88DE80D0097
:100E700030487844801C03AC0DC884E80D0041F66E
:100E80009B300844372190FBF1F290FBF1F5A5F17E
:100E9000800501FB12041B3C02D56442012000E0E6
:100EA0000020DFF890A080460027FA44AAF1BE0A8D
:100EB0000DE0E00709D03246684607EB47010AEB30
:100EC000810100F034FB8DE8070064107F1C002CCA
:100ED000EFD1184F7F44AC3F18E0E80714D007EB80
:100EE00004100DF1180A90E80E008AE80E00C068A0
:100EF000F04201D198190890324606A903A800F0E3
:100F000016FB03AB83E807006D10641C002DE4D1D1
:100F100032466946B8F1000F03A802D000F0F3FA98
:100F200001E000F004FBC9E90001C9F808200AB09B
:100F3000BDE8F08780570000007B00F0800070471C
:100F400000487047707B00207546FFF7F9FFAE46FA
:100F500005006946534620F00700854618B020B5C5
:100F6000FFF70EFABDE820404FF000064FF00007F3
:100F70004FF000084FF0000B21F00701AC46ACE841
:100F8000C009ACE8C009ACE8C009ACE8C0098D46AE
:100F9000704710B50446AFF300802046BDE810400E
:100FA000FFF779B94FF0013C50F8042B51F8043B9E
:100FB0009A4221D1A2EB0C03934313EACC1317D12D
:100FC00050F8042B51F8043B9A4215D1A2EB0C03C4
:100FD000934313EACC130BD150F8042B51F8043B84
:100FE0009A4209D1A2EB0C03934313EACC13DBD052
:100FF0004FF00000704700BFD01A01BAB1FA81F17A
:1010000001F0180122FA01F0CB40C1F12001DBB25E
:10101000C0B2C01A2CFA01F3D11A914311EAC311DC
:10102000E6D170475FEA400C08BF91F0000F4FEA2D
:101030008C234FEAC12243EA51514FEA1C5018BF9A
:1010400000F5F0404FEA300018BF41F000415FEA80
:101050006C5C00F02980BCF1FF3F08BF40F080408D
:101060007047130C06BF12044FF0100C4FF0000C29
:10107000130E04BF12020CF1080C130F04BF12016F
:101080000CF1040C930F04BF92000CF1020CD30F6F
:1010900004BF52000CF1010C11464FF00002A0F108
:1010A0001F00A0EB0C00704711F0004F08BF704705
:1010B00031F000413FF4D5AF0B0C06BF09044FF0EF
:1010C000100C4FF0000C0B0E04BF09020CF1080CC1
:1010D0000B0F04BF09010CF1040C8B0F04BF890036
:1010E0000CF1020CCB0F04BF49000CF1010CCCF148
:1010F0002003A0EB0C0022FA03F302FA0CF241EAFF
:10110000030100F10100704720F07F4C80EA0300EA
:1011100023F07F47ACEB070303F57C5300F000405E
:1011200003F1FF032DE980494FEA154B09B44FEA5B
:10113000144325EA0B4E24EA03480FF2042606EB7B
:10114000132749083E785FEA320203FB0667C7F5BA
:10115000000707FB06F64FEA54374FEAD64606F17A
:10116000020607FB066CCCF1005C4FEA1C472CEA38
:10117000074C07FB06F40CFB06F504EB15464FEA9B
:10118000961634BF00204FF000404FEAD13706FBDF
:1011900007FC4FEA1C4C0CFB0BF7D21B03FB0CF7B4
:1011A00061EB07010CFB0EF7B0EB074072EB174247
:1011B0000CFB08F734BFA2EB0742B2EB074261EB2E
:1011C00017414FEA0C444FEA910706FB07FC4FEA30
:1011D0001C4C0CFB0BF7B0EBC74072EB573203FB18
:1011E0000CF734BFA2EBC742B2EBC74261EB5731F9
:1011F0000CFB0EF7B0EBC70072EB57720CFB08F755
:1012000034BFA2EBC702B2EBC70261EB5771039F79
:101210004FEA816141EA921104EBCC044FEAD137E5
:101220004FEA826206FB07FC42EA90124FEA8060B6
:101230004FEA1C4C0CFB0BF7D21B03FB0CF761EBCA
:1012400007010CFB0EF7B0EB074072EB17420CFBEB
:1012500008F734BFA2EB0742B2EB074261EB17413C
:101260004FEA8C554FEA910704EB9C2406FB07FCE0
:101270004FEA1C4C0CFB0BF7B0EBC74072EB57323C
:1012800003FB0CF734BFA2EBC742B2EBC74261EBE2
:1012900057310CFB0EF7B0EBC70072EB57720CFB2B
:1012A00008F734BFA2EBC702B2EBC70261EB57717C
:1012B00015EB4C254FEA816141EA92114FEA8262B7
:1012C0004FEAD13742EA901206FB07FC44F10004D2
:1012D0004FEA80604FEA1C4C0CFB0BF7D21B03FB60
:1012E0000CF761EB07010CFB0EF7B0EB074072EB5C
:1012F00017420CFB08F734BFA2EB0742B2EB0742E0
:1013000061EB174115EB1C154FEA813141EA92411F
:101310004FEA823242EA90424FEA80304FEA0C763E
:1013200044F1000448EA03434EEA0B484FF0000E34
:10133000B2EB080C71EB030724BF624639464EEB53
:101340000E0E4FF0000B0018524149414BEB0B0BB6
:10135000B2EB080C71EB03077BF1000B24BF624674
:1013600039464EEB0E0E4FF0000B0018524149412A
:101370004BEB0B0BB2EB080C71EB03077BF1000B93
:1013800024BF624639464EEB0E0E51EA020718BFE3
:1013900046F0010616EB0E7655F1000254F10001FD
:1013A00003D5BDE88901BDE80088BDE88901BDE835
:1013B0000048B619524141EB0101A3F10103704706
:1013C00080807F7E7D7C7B7A797877767675747382
:1013D000727171706F6E6E6D6C6C6B6A6A69686841
:1013E000676666656464636362616160605F5F5ED7
:1013F0005E5D5D5C5C5B5B5A5A595958585757564D
:1014000056555555545453535252525151505050B1
:101410004F4F4F4E4E4D4D4D4C4C4C4B4B4B4A4A03
:101420004A49494948484847474747464646454547
:101430004544444444434343434242424241414180
:10144000002B26D4770021D01CB54FEA370703B410
:101450004FF010004FF010014FF000000FBCBDE83E
:1014600010400BF1010BBBF1010F08BF5FEA17073A
:1014700022BF12F1010211F101014FF0004143F1CD
:10148000000300F0004043EA00007047F9D357081A
:10149000DAE746EA064613F1400F4FEA16461FDD2B
:1014A00013F1200FDFBF16430A46002120335B42B1
:1014B000C8D0C3F1200746EA064602FA07F74FEA0A
:1014C000164646EA0706C3F1200722FA03F201FA9C
:1014D00007F721FA03F14FF0000342EA0702B1E7F0
:1014E00046EA020646EA06464FEA164646EA01067C
:1014F000BCBF46EA0646360C4FF000034FF0000230
:101500004FF000019EE72DE9C048934630B491E8C2
:10151000380007C831EA400C48BF34EA430C03D511
:10152000FFF7F2FDFFF78CFFF0BCBDE800882DE966
:10153000C048934630B491E8380007C810F0804F97
:1015400008BF13F0804F03D100F005F8FFF778FFD4
:10155000F0BCBDE8008820F07F4780EA030023F05C
:101560007F4C07EB0C03A3F57C5300F00040A3F184
:10157000FE0392F0000F00F0B38095F0000F00F032
:1015800077802DE901494FEA11404FEA144621EADC
:10159000004800FB06FC24EA064708FB06F607FBAA
:1015A00008F800FB07F718EB06484CEB164C4FEA1F
:1015B000124B18EB07484FEA15464CEB174022EA4E
:1015C0000B4E0BFB06FC25EA06470EFB06F607FB57
:1015D0000EFE0BFB07F71EEB064E4CEB164C4FF0C6
:1015E00000061EEB074E4CEB174B18EB0B0840F1B7
:1015F000000018EB0E0B58EB000840F100008F1AAA
:101600004FF000013CBFC943661B14BFB5EB040C8F
:1016100000213CBFC943F61B4FEA17444EEA8E0E29
:1016200027EA04454FEA1C4704FB07622CEA074CF3
:1016300005FB07F70CFB05F604FB0CFC16EB074655
:1016400042EB174216EB0C4642EB1C421BEB060624
:1016500058EB0202414146EA9E0601D5BDE80189E8
:10166000B619524141EB0101A3F10103BDE8018923
:101670004FEA14454FEA114724EA054621EA074C90
:1016800005FB07F406FB07F70CFB06F105FB0CFC5A
:1016900011EB074144EB17444FEA124711EB0C41A1
:1016A00044EB1C4422EA074C05FB07F206FB07F754
:1016B0000CFB06F605FB0CFC16EB074642EB17424B
:1016C00016EB0C4642EB1C456A1854F1000148BF6A
:1016D0007047B619524141EB0101A3F10103704774
:1016E00095F0000F37D04FEA11424FEA144721EA34
:1016F000024624EA074C02FB07F106FB07F70CFB46
:1017000006F402FB0CFC14EB074441EB17414FEAD3
:10171000154714EB0C4441EB1C4125EA074C02FB36
:1017200007F506FB07F70CFB06F602FB0CFC16EBB5
:10173000074645EB174516EB0C4645EB1C421219C4
:1017400051F1000148BF7047B619524141EB010108
:10175000A3F1010370474FEA14454FEA114724EA09
:10176000054621EA074C05FB07F106FB07F70CFBD2
:1017700006F24FF0000605FB0CFC12EB074241EBB2
:10178000174112EB0C4251EB1C4148BF70479218B5
:1017900041EB0101A3F10103704700F0E5F94FF4BB
:1017A000FA740021022000F0CBF9204603F090F9F2
:1017B0000121022000F0C4F9204603F089F9F0E786
:1017C000FEE770474FF4FA74204603F081F9FBE717
:1017D000F0B5002201274FF0030C0B6807FA02F561
:1017E0002B40AB422CD1066853000CFA03F4A643FD
:1017F00006600E79D0F800E09E4046EA0E060660CC
:101800000E79012E01D0022E12D18668A643866081
:101810004E79D0F808E09E4046EA0E06866046689B
:10182000AE43466045688E799640B6B23543456012
:10183000C568A543C560CC799C40C3681C43C4609F
:10184000521C102AC9D3F0BD4B07DB0E9A40C908C1
:1018500010B500EB8100016A0F249C40A143016296
:10186000016A1143016210BD4183704701837047D3
:101870001CB5074C4FF0FF352A466946A06803F0B7
:101880002BFC0128F8D1684602F060F8F4E700006C
:1018900004020020FEE700000C4A00B50023C2F855
:1018A00098320B48016821F440410160016841F41D
:1018B00080410160C2F89C3202F5267200F00AF8FD
:1018C0000120106000F006F8136000BD0080404267
:1018D00000040240C820401EFDD270471CB5012103
:1018E000022000F0A1FBC020009001208DF8040030
:1018F0000220064C8DF8050069462046FFF768FF78
:10190000C0212046FFF7B2FF1CBD000000040240CA
:1019100010B50C4A0024C2F898420B48016821F423
:1019200040410160016841F4804101600123C2F837
:101930009C3202F52672FFF7CDFF1360FFF7CAFF56
:10194000146010BD0080404200040240F0B507461C
:1019500013480024016821F44041016001680160DE
:10196000104B224625460126C3F89852FFF7B2FFD6
:10197000C3F898626006040ED3F81C0208B1641C18
:10198000E4B2FFF7A7FF521CD2B2082AECD31FB172
:10199000FFF782FF2046F0BDFFF7BAFFFAE700002D
:1019A000000402400080404270B5034613480168BD
:1019B00021F440410160016841F480410160104D13
:1019C0000026C5F8986232460124180602D5C5F8EB
:1019D0009C4201E0C5F89C625806030EFFF77AFFAF
:1019E000C5F89842FFF776FFC5F89862FFF772FFD7
:1019F000521CD2B2082AE8D370BD00000004024095
:101A000000804042114800B5016821F44041016066
:101A1000016841F4804101600D4A0120C2F89C0236
:101A2000D2F81C1249B1C2F89802FFF753FF002305
:101A3000C2F89C32D2F81C0208B1002000BDFFF7AA
:101A400049FFC2F89832012000BD000000040240A6
:101A5000008040420D4800B5016821F4404101601A
:101A6000016841F480410160094A0020C2F89802EF
:101A7000C2F89C0202F52672FFF72CFF01201060CD
:101A800050605DF804EBFFF725BF00000004024042
:101A900000804042114810B50168002221F4404105
:101AA0000160016801600E4B0124C3F89C42FFF7FE
:101AB00011FFC3F8984207E0521CD2B2642A03D93E
:101AC000FFF7C8FF002010BDFFF704FFD3F81C028A
:101AD0000028F1D1C3F89802012010BD0004024093
:101AE000008040422DE9F0411D46164688460746D3
:101AF0000024FFF787FF3846FFF756FFFFF7CAFFBE
:101B00004046FFF751FFFFF7C5FFFFF77BFF7F1C44
:101B1000F8B2FFF749FFFFF7BDFF771E09E0BC42AF
:101B200001D0012000E00020FFF710FF2855641CC1
:101B3000E4B2B442F3D3FFF78DFF2046BDE8F08155
:101B4000084A012808D002280BD140020129014689
:101B5000104604D0FFF78ABE4FF40060F6E7FFF7A7
:101B600083BE7047000802401CB50121042000F02C
:101B70005BFA4FF44060009001208DF804000220D1
:101B80008DF8050000218DF80610084C8DF807002F
:101B900069462046FFF71CFEE1142046FFF766FE6B
:101BA00021152046FFF762FE1CBD00000008024020
:101BB00070B50146772001F09FFF0A2002F088FFF0
:101BC0000021772001F098FFFFF71CFFEF20FFF7BF
:101BD000EBFEFFF75FFF80B10120FFF7B7FE044681
:101BE0000120FFF7B3FE05460020FFF7AFFE0146D8
:101BF000200440EA0520084370BDFFF72BFF02A038
:101C0000FEF7D2FB012070BD455252204D533536B0
:101C10003131206E6F7420686176652061206163C8
:101C20006B200D0A0000000070B52DED068BFFF74C
:101C3000BFFF664C664E0546A0603089D4ED04AA0D
:101C400000EE100AB8EE400A20EE2A0A10EE100A42
:101C500004F03AFB9FED5F1B53EC112B04F03EF8B0
:101C600041EC180BB088000403F0E9FF53EC182B8B
:101C700003F0BAFD41EC190B84ED0A9BF08800EEED
:101C8000100AB8EE400A20EE2A0A10EE100A04F0FC
:101C90001BFB9FED521B53EC112B04F01FF841EC82
:101CA000180B7088C00303F0CAFF53EC182B03F025
:101CB0009BFD41EC180B4B4984ED0C8B94ED01AA74
:101CC0001AEE100A884240DA2AEEAA0ADFED460A26
:101CD00020EE200A84ED050A9FED440AF0EE040A86
:101CE000B7EE041A3AEE400A1AEE100A404920EE06
:101CF000000A884284ED060A60EE200A20EE010AFE
:101D0000C4ED070A84ED080A27D9B1EE0C1A9FED3D
:101D1000390A3AEE000A20EE000A84ED060A40EE87
:101D2000010A10EE100AC4ED070A04F0CDFA9FED87
:101D3000321B53EC112B03F0D1FF53EC182B03F0A3
:101D400053FD03F01FFD206207E09FED2D0A84ED97
:101D5000050A84ED070A84ED080A94ED050A3AEEB7
:101D6000400A84ED010AE06904F0AEFA53EC192B45
:101D700004F0E8F841EC190B84ED0A9B206A04F0AA
:101D8000A3FA53EC182B04F0DDF841EC180B2846AD
:101D900084ED0C8B03F053FF53EC182B03F09EFFE4
:101DA0009FED181B53EC112B03F098FF53EC192BEC
:101DB00004F0A0F99FED151B53EC112B03F08EFFDF
:101DC00003F0E0FC2060BDEC068B70BD50010020EC
:101DD00030020020000000000000803F00000000F2
:101DE0000000703F0000FA44000000300000FA4498
:101DF0000080BBC40080BB4400000000000016400F
:101E000000000000000000000000A03E00000000F4
:101E10000000003F10B5FFF7CBFE0E490E4A9FEDC4
:101E20000F1AC8605389A0EB032000EE100AB8EE29
:101E3000400A81ED040A908900EE900AF8EE600AEB
:101E400060EE800A9FED060A00EE810A81ED010A2C
:101E500010BD0000500100203002002000000034BE
:101E60000000FA4410B500F00AF8642002F030FED9
:101E700000F00AF8BDE81040642002F029BE1E21DF
:101E8000772001F039BE00007FB50024144DA02654
:101E900006EB4400C1B203AB0222EE20FFF722FEA4
:101EA0009DF80D209DF80C100EA0FEF77DFABDF8F0
:101EB0000C0040BA25F81400641CE4B2062CE7D9E3
:101EC00013A0FEF771FA2889AA8969898DE80700AD
:101ED000EB88AA88698813A0FEF766FA7FBD000028
:101EE000300200200A20546865204D5335363131C8
:101EF000303142412069732072656164696E6720E8
:101F000050524F4D203A202025642025640D0A00B0
:101F10000D0A202050524F4D20202056616C203A4F
:101F2000200D0A000D0A4331203D2025640D0A438F
:101F300032203D2025640D0A4333203D2025640DC9
:101F40000A4334203D2025640D0A4335203D2025D9
:101F5000640D0A4336203D2025640D0A0000000070
:101F6000FFF780FF0A2001F059FC01F095FD10EE0B
:101F7000100A04F0A9F941EC100B04A053EC102B4B
:101F8000FEF712FA642002F0A3FDEEE7666C7920FA
:101F900068696768203D202566200D0A0000000062
:101FA000FEE7FFF79BFC082002F092FDFBE770477D
:101FB00030B50F23C27801780125FAB1144A1268AE
:101FC00001F1E02102F4E062C2F5E062C2F307220F
:101FD000C2F10404D3404278A24084781C401443E8
:101FE000220181F80024007800F01F018D40400993
:101FF000800000F1E020C0F8005130BD01F01F006A
:1020000085404809800000F1E020C0F8805130BDD3
:102010000CED00E0024908430249086070470000E7
:102020000000FA050CED00E0044A0029116801D017
:10203000014300E0814311607047000030380240E6
:10204000044A0029116801D0014300E08143116076
:102050007047000040380240044A0029116801D04E
:10206000014300E0814311607047000044380240A2
:1020700070B5204B1968204C11F00C0104D066108B
:10208000042903D0082903D004601BE0066019E08E
:10209000184A121F1168C1F38055116801F03F0101
:1020A00015B1B6FBF1F101E0B4FBF1F1146812686F
:1020B000C4F388146143C2F30142521C5200B1FBC5
:1020C000F2F1016019680F2202EA11110B4A545C07
:1020D0000168E14041601C68072505EA9424145D0D
:1020E00021FA04F484601B6805EA5333D25CD140C2
:1020F000C16070BD083802400024F400380100209F
:102100000CB50022264900920192086840F4803004
:1021100008604FF4A043086800F400300190009874
:10212000401C0090019810B900989842F3D10868BB
:10213000800332D50120019019484030026842F0F6
:10214000805202601748026842F44042026014481C
:1021500008300268026002680260026842F480523D
:102160000260031F104A1A600A6842F080720A6017
:102170000A689201FCD50D4A40F2027111600168B3
:1021800021F003010160016841F002010160016872
:10219000C1F381010229FAD10CBD01920CBD0000EE
:1021A0000038024000700040082A4007003C02400E
:1021B0007CB501240A486502CDE9004000232A4687
:1021C00008A10B4803F062F805480023001DCDE983
:1021D00000402A4607A10A4803F058F87CBD0000D9
:1021E000280200204D7075363035305461736B0015
:1021F000A31F00084D53353631315461736B000015
:10220000611F00087CB500220121322002F0BCFDD4
:10221000164C00220121E060322002F0B5FD206161
:1022200000220121322002F0AFFD6061204601242E
:10223000CDE90040650200232A460DA1104803F0B5
:1022400025F80A480023001DCDE900402A460DA1CB
:10225000104803F01BF8054800230830CDE9004082
:102260002A460DA1104803F011F87CBD1002002091
:102270005573617274315265635461736B00000071
:10228000A9270008557361727432526563546173F3
:102290006B0000003D28000855736172743652656A
:1022A000635461736B000000F928000810B55020DA
:1022B00080F31188BFF34F8FBFF36F8F03F028F8BF
:1022C00018B104494FF080500860002080F3118855
:1022D00010BD000004ED00E0124810B5016841F4A3
:1022E000700101601048016841F0010101600E4A6F
:1022F00000210832116002680C4B1A400260031D75
:102300000B4A1A60026822F48022026006480C30F0
:102310000160FFF7F5FE03494FF000608039086067
:1023200010BD000088ED00E000380240FFFFF6FE1F
:1023300010300024704700001CB5104C40F22551AD
:10234000204600F099F9002817D0204600F022FA24
:102350008DF8040000200346009009486A4601A950
:10236000406902F04BFE0098002806D00549200481
:102370000860BFF34F8FBFF36F8F1CBD001001408B
:102380001002002004ED00E0F0B50646012187B000
:102390000846FFF749FE01211020FFF75DFE254D9D
:1023A000072209212846FFF74FFA07220A2128466B
:1023B000FFF74AFA02218DF814108DF815104FF42A
:1023C000C060002404908DF8164001278DF8177026
:1023D00004A92846FFF7FCF9ADF80440ADF8064023
:1023E000ADF80840ADF80C400C20134CADF80A00D5
:1023F00000966946204600F077F90121204600F05A
:102400002AF94021204600F023F9012240F225510B
:10241000204600F050F925208DF818000F208DF887
:1024200019008DF81A008DF81B7006A8FFF7C0FD83
:1024300007B0F0BD00000240001001401CB5104C78
:1024400040F22551204600F017F9002817D0204609
:1024500000F0A0F98DF80400002003460090094820
:102460006A4601A9006902F0C9FD0098002806D05B
:102470000549A0040860BFF34F8FBFF36F8F1CBDE9
:10248000004400401002002004ED00E02DE9F0417E
:102490008046012188B00846FFF7C6FD01214804A7
:1024A000FFF7CEFD254E072202213046FFF7CCF97B
:1024B000072203213046FFF7C7F902218DF81410D7
:1024C0008DF8151000240C258DF816400127049571
:1024D0008DF8177004A93046FFF77AF9ADF804407B
:1024E000ADF80640ADF80840ADF80C40144CCDF8FE
:1024F0000080ADF80A506946204600F0F5F8012149
:10250000204600F0A8F84021204600F0A1F8012262
:1025100040F22551204600F0CEF826208DF8180014
:1025200006208DF8190003208DF81A008DF81B7015
:1025300006A8FFF73DFD08B0BDE8F08100000240AD
:10254000004400401CB5114C40F22551204600F0DB
:1025500093F8002818D0204600F01CF98DF80400EC
:102560000020034600900A486A4601A9406902F02B
:1025700045FD0098002807D006494FF080500860BC
:10258000BFF34F8FBFF36F8F1CBD000000140140DD
:102590001002002004ED00E0F0B50746012187B0ED
:1025A0000846FFF741FD01212020FFF755FD264E8B
:1025B00008220B213046FFF747F908220C2130464C
:1025C000FFF742F94FF4C050049002208DF8140038
:1025D0008DF8150000248DF8164001258DF8175050
:1025E00004A93046FFF7F4F8ADF80440ADF8064012
:1025F000ADF80840ADF80C400C20144CADF80A00C2
:1026000000976946204600F06FF80121204600F04F
:1026100022F84021204600F01BF8012240F225510B
:10262000204600F048F847208DF8180006208DF865
:10263000190003208DF81A008DF81B5006A8FFF72B
:10264000B7FC07B0F0BD00000000024000140140DC
:10265000C943018070470029818902D041F40051AB
:1026600001E021F400518181704702460020128868
:102670000A4200D00120704770B501F01F05012605
:102680000024C1F3421306FA05F2012B0FD0022BEE
:102690000FD0838A4FEA11210088134206FA01F60F
:1026A00000EA060001D000B10124204670BD8389F4
:1026B000F0E7038AEEE710B5C1F3421301F01F04FF
:1026C0000121A140012B07D0022B07D01430002A92
:1026D000026805D00A4304E00C30F8E71030F6E752
:1026E0008A43026010BD00007FB50446008A0D4693
:1026F000C98820F4405001432182A08941F20C6135
:102700008843A9882A8911436A8902431143A18118
:10271000A08A20F44071A8890843A0826846FFF788
:10272000A7FC1A48844202D01948844201D1039878
:1027300000E00298A189090400EBC00101EB001040
:10274000296801D5490000E08900B0FBF1F064225E
:10275000B0FBF2F109010B096FF018056B4300EBB8
:102760008300A3891D044FF0320306D503EBC0009C
:10277000B0FBF2F000F0070005E003EB0010B0FB47
:10278000F2F000F00F00084320817FBD00100140EF
:10279000001401408088C0F308007047C1F30801AD
:1027A00081807047FEE700000EB54FF0FF341B4EEE
:1027B00025462A4602A9F06802F08EFC0128F8D1CD
:1027C0009DF80800FF281BD0611CF2D00DF8040012
:1027D000641C052CEDD12C4600210120FFF7B0F937
:1027E0000F48002301226946006802F055FB0D499D
:1027F0004FF080500860BFF34F8FBFF36F8FD8E763
:10280000641C4FF0000407D007A0FDF7CDFD0021A8
:102810000120FFF795F9CCE70121F9E7100200202C
:102820000C02002004ED00E04261736963205265F0
:1028300063204572722F722F6E00000008B50024CD
:10284000294E671E3A466946306902F045FC012868
:10285000F8D1A4B1012C18D0022C1CD0032C20D00C
:10286000042C24D0052C28D0062C2CD0072C2CD0BE
:10287000082CE7D19DF80000AA282CD031E09DF863
:102880000000FE28DED10124DCE79DF800000428CA
:10289000D8D10224D6E79DF80000032460F3070591
:1028A000D0E79DF80000042460F30F25CAE79DF8E7
:1028B0000000052460F31745C4E79DF800000624D6
:1028C00060F31F65BEE70724BCE79DF800001E28E3
:1028D000B8D90824B6E7280C02B229B203A0FDF744
:1028E00063FD0024AEE7000010020020583A256482
:1028F000593A25640D0A000008B5084C4FF0FF3521
:102900002A466946606902F0E7FB0128F8D19DF884
:10291000001003A0FDF748FDF2E7000010020020C0
:102920002563000003B401984100009850EAC120DB
:1029300018BF04204A0D18BF40F0010040F2FF729A
:10294000B2EB515F08BF40F00200012808BF05202C
:1029500002B07047000000002DE9F04D2DED040B92
:102960002DED0E8B96B0DDE92550279CDDF890A06B
:1029700025F0004624F00048BAF1000F14BF0121F1
:10298000002101EB4502FC4953184A1093422AD317
:10299000002814BF0123002303EB44030B44F74931
:1029A0008B4220D358EA00019FEDF59B76D0DFF8EB
:1029B000D8B35D4503D1BAF1000F05D188E0BAF173
:1029C000000F08BF002100D0012101EB450111F5E6
:1029D000001F08D8002814BF0121002101EB440189
:1029E00011F5001F0BD99DED261B9DED240B16B094
:1029F000BDEC0E8B04B0BDE8F04D00F069BE0027C1
:102A0000002DBCBFE149884521DAE1498845A8BFCE
:102A100002271CDAC3451ADCDE4901EB28511429D0
:102A200008DDC1F1340220FA02F101FA02F2824219
:102A30000DD108E058B9C1F1140228FA02F101FAE7
:102A400002F2424503D101F00101C1F1020756EA49
:102A50000A0124D1002C22DA002D18BF022F01D048
:102A6000012F0AD00220FDF78CFE16B0BDEC0E8BB4
:102A700004B0BDE8F04D00F013BE0220FDF781FE6A
:102A800000F00EFE51EC100B02F070FE41EC100B4A
:102A900016B0BDEC0E8B04B0BDE8F08D18E09FEDD4
:102AA000BEAB9FEDBF8B002871D1B848804522D1C5
:102AB00005F1804010F5801008BFBAF1000F07D073
:102AC000B3450ADC002CA8BF9DED260BE0DA0DE033
:102AD000B0EE490AF0EE690ADAE7002C06DA9DED5D
:102AE000260B51EC100B02F041FE6FE0AE4878442B
:102AF00090ED000BCCE7D8454DD1002C48DA2EB133
:102B000086423AD1BAF1000F42D126E0BAF1000F65
:102B100013D00220FDF735FE00F0F6FD8DED020B1F
:102B20009DED240B8DED000B10EE900A039961F3DF
:102B30001E0003909DED020BAAE78DED02AB9DED0B
:102B4000240B1AEE901A10EE900A8DED000B61F333
:102B50001E0003909DED020B9AE78DED028B9DED1B
:102B6000240B18EE901A10EE900A8DED000B61F315
:102B70001E0003909DED020B8AE709DA9DED240B00
:102B800051EC190B53EC102B02F0EAFE1EE020E092
:102B90009DED240B7CE786421BDAB4F1804F0DD00B
:102BA000A4F10050B0F1FF5013D1002D11DB9DEDC9
:102BB000240B51EC100B01F0C7FD07E09DED240B39
:102BC00053EC102B51EC100B00F0C2BC41EC100B7D
:102BD0005EE79DED240B51EC100B00F044FFBAF1C1
:102BE000000FCDE90E0142D19FED710B46B3A6F166
:102BF000E040B0F17F600CD05E4538D1002D00DAA6
:102C0000A7B3022F0CBF01204FF0FF3003F000F8F4
:102C1000DCE7002D01DD002C0DDA002D01DD002C9C
:102C20001FDB002D16DA002C14DB012F08BF9FEDEF
:102C3000620B3FF42DAFB0EE4A0AF0EE6A0A27E7C6
:102C4000022F18BF002D0CD0012F0AD1002DFFF646
:102C50001FAF06E0002DB8BF002C08DA012F3FF4AB
:102C600017AFB0EE480AF0EE680A11E71BE001204A
:102C700000EBE57050EA070115D0791EB0EE498AE5
:102C8000F0EE698A084308BF9FED4D8B4E48002542
:102C9000804570DD4D494E48884514DDB0420DDB5E
:102CA000002C19DB2FE00120FDF76BFD16B0BDEC09
:102CB0000E8B04B0BDE8F04D00F016BDB34502DC4C
:102CC000002C09DC1FE0864202DA002C1BDA03E04C
:102CD0005E452BDD002C16DD0220FDF752FD00F0D5
:102CE00013FD8DED020B53EC1A2B51EC180B02F077
:102CF000F5FFCDE900010399019861F31E000390EF
:102D00009DED020BC4E60220FDF73BFD00F00CFD3B
:102D100010EE901A18EE900A8DED020B8DED008BDF
:102D200061F31E0003909DED020BB1E69DED0E0BCD
:102D300053EC192B51EC100B03F0DCF99FED260B33
:102D4000CDE9080153EC102B9DED080B51EC100B55
:102D500002F0C4FF9FED221B53EC112B03F0F2F89D
:102D60009DED081B53EC112B02F0B8FF9FED1E1BCD
:102D700053EC112B3CE08CE0FFFF1F00FFFF0F0026
:102D8000000000000000F03F0000F03F0000F07F76
:102D90000000404301FCFFFF000000000000F07F46
:102DA0000000000000000000763A00000000000073
:102DB0000000000000000080000000000000F0FFA4
:102DC000000000000000F0BF0000E0410000F04300
:102DD000FFFFEF3F00000000000000000000D03FB8
:102DE000555555555555D53F000000000000E03FB2
:102DF00003F0A8F89DED080B41EC1A0B53EC102BD7
:102E000051EC100B02F06AFF53EC1A2B02F066FF34
:102E100041EC1A0B9FEDFE0B53EC102B9DED080BB4
:102E200051EC100B02F05AFF41EC1B0B9FEDFA0B1B
:102E300051EC1A0B53EC102B02F050FF41EC1A0B23
:102E40009FEDF70B53EC102B9DED080B51EC100B85
:102E500002F044FF53EC1A2B03F04CF941EC1A0B2F
:102E600051EC1B0B53EC1A2B02F0BEFC0690CDE983
:102E700006519DED060B53EC1B2B51EC100B03F090
:102E800039F953EC1A2B03F05DF841EC100B00F00C
:102E9000A1B90020B6F5801F0EDA9FEDE30B53ECCD
:102EA000102B9DED0E0B51EC100B02F017FFCDE92E
:102EB0000E016FF034000E4600EB2650A0F2FF37F3
:102EC000C6F31300DA4940F07F6646F04056884268
:102ED000D8BF002408DDD7498142C8BF012403DCE4
:102EE0000024A6F580167F1CD348784400EBC4006C
:102EF0000F9690ED00CB9DED0E0B53EC1C2B51EC7F
:102F0000100B03F0F7F89DED0E0B41EC1B0B53EC8F
:102F10001C2B51EC100B02F067FC41EC100B51EC38
:102F2000190B53EC102B02F01BFD41EC1D0B51EC67
:102F30001B0B53EC1D2B02F0D1FE41EC1A0BBF48CA
:102F40008DED10AB7844109590ED000B4FF00050D4
:102F500040EA660000EB84408DED080B00F5002090
:102F600009909DED080B53EC1C2B51EC100B03F05A
:102F7000C1F89DED0E1B53EC112B02F0E3FF41EC69
:102F8000100B53EC102B9DED100B51EC100B02F0BD
:102F9000A5FE9DED080B41EC1C0B53EC102B9DED99
:102FA000100B51EC100B02F099FE53EC1B2B02F0AE
:102FB000C9FF53EC1C2B03F09DF853EC1D2B02F0C2
:102FC0008DFE41EC1C0B53EC1A2B51EC1A0B02F04A
:102FD00085FE41EC1B0B9A480621B0EE4B0AF0EE41
:102FE0006B0A784400F0E0FAB0EE401AF0EE601A96
:102FF000B0EE41DAF0EE61DA53EC1B2B51EC1B0B17
:1030000002F06CFE53EC1D2B02F068FE9DED100BE0
:1030100041EC1B0B53EC1A2B51EC100B02F0E4FBB0
:1030200053EC1C2B02F05AFE53EC1B2B02F0DCFB82
:103030009DED100B41EC1B0B53EC102B51EC100BC6
:1030400002F04CFE41EC1D0B9FED7FEB53EC1E2B71
:1030500002F0CAFB53EC1B2B02F0C6FB0890CDE933
:1030600008519DED080B53EC1E2B51EC100B03F097
:1030700041F853EC1D2B03F03DF853EC1B2B02F0F1
:1030800061FF9DED080B41EC1D0B53EC102B9DEDEA
:10309000100B51EC100B02F021FE41EC1B0B53EC1A
:1030A0001A2B51EC1D0B02F019FE9DED080B41ECA3
:1030B0001A0B53EC102B51EC1C0B02F00FFE53ECCF
:1030C0001A2B02F091FB41EC1A0B51EC1B0B53EC49
:1030D0001A2B02F089FB0C90CDE90C519DED0C0BE5
:1030E00053EC1B2B51EC100B03F004F853EC1A2B90
:1030F00002F028FF41EC1B0B9FED550B53EC102BFE
:103100009DED0C0B51EC100B02F0E8FD41EC1A0B9D
:103110009FED510B51EC1B0B53EC102B02F0DEFD1D
:1031200041EC1B0B9FED4E0B53EC102B9DED0C0B4C
:1031300051EC100B02F0D2FD53EC1B2B02F054FBB0
:1031400041EC100B4848784400EBC40090ED001BA4
:1031500051EC100B53EC112B02F046FB41EC1B0B16
:10316000384602F055FDCDE9080153EC1B2B51EC1C
:103170001A0B02F039FB41EC100B3C48784400EB91
:10318000C40090ED00CB51EC100B53EC1C2B02F063
:103190002BFB9DED081B53EC112B02F025FB069039
:1031A000CDE906519DED080B53EC102B9DED060B60
:1031B00051EC100B02F09EFF53EC1C2B02F09AFF17
:1031C00053EC1A2B02F096FF53EC1B2B02F0BAFEC5
:1031D00041EC100B9DED261B53EC102B8DED001BCD
:1031E00000959DED260B51EC100B02F077FD9DED47
:1031F000000B41EC1A0B53EC102B9DED260B51EC00
:10320000100B02F077FF9DED061B53EC112B2FE006
:10321000000000604715F73FFE822B654715F73F1A
:1032200044DF5DF80BAE543E000000000000404358
:103230008E9803007AB60B00F235000020360000AD
:103240002A350000000000000000000000000840D7
:10325000000000E009C7EE3FFD033ADC09C7EE3F7E
:10326000F5015B14E02F3EBEB63300007033000062
:1032700002F034FD53EC1A2B02F0B6FA9DED060B6A
:1032800041EC1A0B53EC102B9DED000B51EC100B85
:1032900002F024FDCDE90C019DED0C0B51EC1A0B55
:1032A00053EC102B02F0A0FACDE902010C46AA491A
:1032B0008C422FDB611A084318D19DED0C0B53ECA7
:1032C000102B9DED020B51EC100B02F013FF41ECA3
:1032D0001B0B9FEDA30B51EC1A0B53EC102B02F0C0
:1032E00083FA53EC1B2B02F0F7FD2DD20220FDF7E1
:1032F00048FA00F009FA10EE901A18EE900A8DEDD7
:10330000020B8DED008B61F31E0003909DED020B0F
:10331000FFF7BEBB944A24F00041914214D3934975
:10332000214408437FF4EFAC9DED0C0B53EC102BC4
:103330009DED020B51EC100B02F0DCFE53EC1A2B4E
:1033400002F0CAFD7FF6DFAC24F000408849894ACC
:10335000002601EB205182422BDA481C4FF48011E9
:1033600021FA00F02044844AC0F30A517A44A1F2C1
:10337000FF3192ED000B814A8DED080BCA4020EA27
:103380000202C0F3130040F48010C1F1140120FACE
:1033900001F60992002CB8BF76429DED080B53EC64
:1033A000102B9DED0C0B51EC100B02F0A3FECDE9A0
:1033B0000C019DED0C0B51EC1A0B53EC102B02F091
:1033C00013FA9FED6F0B0890CDE9085153EC102BC9
:1033D0009DED080B51EC100B02F080FC41EC1B0B37
:1033E0009FED690B53EC102B9DED080B51EC100B6E
:1033F00002F074FC9DED0C0B41EC1C0B53EC102BFC
:103400009DED080B51EC100B02F074FE53EC1A2BDF
:1034100002F098FD9FED5E1B53EC112B02F05EFC59
:1034200053EC1C2B02F0E0F941EC1A0B51EC1B0B96
:1034300053EC1A2B02F0D8F9CDE902019DED020BF5
:1034400053EC1B2B51EC100B02F054FE53EC1A2BD7
:1034500002F078FD9DED020B41EC1A0B53EC102BA2
:1034600051EC100B02F03AFCCDE908014A489DED01
:10347000080B0521784400F097F89DED081B51ECEE
:10348000100B53EC112B02F029FC9DED021B53ECA9
:10349000112B02F057FDCDE906019DED020B53EC17
:1034A0001A2B51EC100B02F019FC53EC1A2B02F002
:1034B0009BF99FED3B0B41EC1A0B53EC102B9DED50
:1034C000060B51EC100B02F015FE9DED060B41ECC6
:1034D0001B0B53EC102B9DED020B51EC100B02F06B
:1034E000FDFB53EC1B2B02F03BFA53EC1A2B02F0C2
:1034F00001FE9DED021B53EC112B02F0FBFD53EC82
:10350000192B02F01FFDCDE9020101EB0650011558
:103510000029C8BF039015DC9DED020B324651EC2B
:10352000100B02F080FFFFF7FDF9042808BF00F040
:10353000FBF832469DED020B51EC100B02F073FFCD
:10354000CDE902019DED020B51EC180B53EC102B51
:1035500002F0C4FBFFF73ABB0000904000000000FF
:10356000FE822B654715973C00CC904000346F3F9E
:1035700001FCFFFF0000E03FF8310000FFFF0F00FB
:1035800000000000432EE63F396CA80C615C20BEB1
:10359000EF39FAFE422EE63FC8300000000000007E
:1035A000000000000000004070B504462DED028BC5
:1035B0004D1E00EBC500B0EE408AF0EE608A90ED43
:1035C000000B35F0060017D053EC182B51EC100B04
:1035D00002F084FB41EC100B6D1E04EBC50090ED76
:1035E000001B51EC100B53EC112B02F0FDF841ECD9
:1035F000100B35F00600E7D1022D36D0042D1CD07B
:10360000062D1CBFBDEC028B70BD53EC182B51EC8A
:10361000100B02F063FB94ED0A1B53EC112B02F02C
:10362000E3F853EC182B02F059FB94ED081B53EC14
:10363000112B02F0D9F841EC100B53EC182B51EC84
:10364000100B02F04BFB94ED061B53EC112B02F018
:10365000CBF853EC182B02F041FB94ED040B53EC28
:10366000102B02F0C1F841EC100B53EC182B51EC6D
:10367000100B02F033FB94ED021B53EC112B02F004
:10368000B3F853EC182B02F029FB94ED001B53EC1C
:10369000112B02F0A9F8BDEC028B41EC100B70BDB0
:1036A0009FED070B10B553EC102B9FED070B51EC62
:1036B000100B02F055F941EC100B10BD000000009A
:1036C0000000000000000000000000000000F03FCB
:1036D00010B553EC112B51EC100B02F085F841ECB6
:1036E000100B10BD000000009FED050B10B553EC52
:1036F000102B51EC100B02F033F941EC100B10BD04
:1037000000000000000000009FED050B10B553EC19
:10371000102B51EC100B02F0E1FA41EC100B10BD34
:1037200000000000000000709FED050B10B553EC89
:10373000102B51EC100B02F0D1FA41EC100B10BD24
:10374000000000000000001030380A2801D20120DB
:1037500070470020704770472DE9F0412DED028B36
:1037600084B0254A4178B3EE0E1A884651648178B8
:10377000F5EE001A00EE101AF8EE400AB0EE410A1B
:1037800010EEA10AF0EE410A82ED0F0AC178B0EE08
:10379000408A00EE101AB8EE400A50EE210AC2ED3F
:1037A000100A0079F0EE608A00EE100AB8EE400AC6
:1037B00010EE211A82ED0E1A11EE100A02F084FDAD
:1037C00006460F4618EE900A02F07EFD04460D46AE
:1037D00018EE100A02F078FD41EC100B8DE8F000B5
:1037E00053EC102B414605A0FCF7DEFD04B0BDEC08
:1037F000028BBDE8F0810000180000203E473E3EED
:10380000426173696320446174612020256420252E
:103810006620256620256620200D0A0070B52DED56
:10382000048B054600249FED248B254E9FED259AA1
:103830001FE05820FEF7EEFA4820FEF7F5F9D6ED26
:10384000000A80EE890A10EE100A02F03DFD41ECFC
:10385000100BB3EE0A1A00F049F853EC182B51EC98
:10386000100B01F0C1FF41EC180B642001F030F99E
:10387000641CAC42DDDB00EE105AB8EEC00A10EE5C
:10388000100A02F021FD41EC100B51EC180B53EC27
:10389000102B02F065F801F075FF706202F014FD64
:1038A000BDEC048B41EC100B07A0BDE8704053EC5D
:1038B000102BFCF779BD00000000000000000000A4
:1038C0005001002000004842496E66203A202D3EFB
:1038D0002067657420746865207A65726F20486976
:1038E0006768202566200D0A200000009FED0F1B51
:1038F00010B553EC112B51EC100B02F031F841ECE8
:10390000100B9FED0C1BFFF727F89FED0C1B51ECE4
:10391000100B53EC112B02F015FB9FED0A1B53EC1F
:10392000112B02F0DBF941EC100B10BD0000000080
:1039300000AA8F406C45D9CC955BC83F00000000C1
:103940000000F03F9DD8899D58A5E54010B504467C
:1039500000F06CF8217801F00F01884208D01E4871
:10396000816F491C8167BDE810401CA0FCF71CBD9D
:10397000194880300168491C0160207800F0F0018E
:103980001BA0FCF711FD207800F0F00000110B28BF
:103990001AD2DFE800F006190A0E121919191919BE
:1039A00016002046FFF7D8FE0EE0204600F0ECF9A6
:1039B0000AE0204600F030FF06E0204600F0E0F884
:1039C00002E0204600F024FEBDE810404FF4006104
:1039D0000D48FDF74BBF00009800002047464C59AA
:1039E0002D3E20526563204552524F52200D0A0051
:1039F00047464C592D3E20526563204944202025DE
:103A000078200D0A000000000008024030B50023B5
:103A100005461C46E818807800F018F82043400658
:103A2000040E5B1C032BF5DB204630BD30B50023B4
:103A300005461C46E818407800F008F82043400688
:103A4000040E5B1C032BF5DB204630BD002104E097
:103A500000F001021144C9B240080028F8D141F336
:103A60000000401C704782B0CDE9000121F0004009
:103A700001909DED000B02B051EC100B704700005F
:103A800004490A885206FCD5024AC1B2121D1180AF
:103A9000704700000014014010B558202DED028B36
:103AA000FEF7B8F94820FEF7BFF8114C606A02F043
:103AB0000BFCD4ED000A9FED0F1A41EC180B80EEC1
:103AC000810A10EE100A02F0FFFB41EC100BB3EE7E
:103AD0000A1AFFF70BFF53EC182B51EC100B02F0F6
:103AE00009FB01F04FFEBDEC028B00EE100A10BD89
:103AF000500100200000484270B50D460446FDF715
:103B000081FF6006000EFDF74FFFFDF7C3FF38B1E0
:103B10002846FDF749FFFDF7BDFF08B1002070BD45
:103B2000FDF798FF012070BD1CB54FF44070FEF703
:103B300071FA4FF41650FEF727FC4FF49640FEF74B
:103B4000A5FC4FF46130FEF727FD09490120CDE9BE
:103B500000014202002307A1084801F097FBFEF78D
:103B600051FBFEF725FB00F027FE01F025F8FEE7EC
:103B7000000000204170705461736B009B170008B7
:103B80002DE9F0412DED028B417801F0070601F09F
:103B9000100711F0080F01F0E005C178C1EBC11169
:103BA0004FEA410381780079C1EB0124C4EB8131F4
:103BB00003EB8101084400EE100AB8EE400ADFED85
:103BC0005A0A80EE208A01D1B1EE488A18EE100A16
:103BD00002F07AFB41EC100B54A053EC102BFCF7D5
:103BE000E3FB2B463A4631465AA0FCF7DDFB5E4C20
:103BF00017B1102F4DD08FE018EE100A02F064FBC1
:103C000041EC100B59A053EC102BFCF7CDFB012E0F
:103C10002BD0022E15D0042E7ED165B1202D07D0D9
:103C2000402D02D0602D77D108E084ED188A73E032
:103C300084ED158A70E084ED128A6DE084ED1B8AB4
:103C40006AE065B1202D07D0402D02D0602D63D1F0
:103C500008E084ED198A5FE084ED168A5CE084ED6B
:103C6000138A59E084ED1C8A56E065B1202D07D0F7
:103C7000402D02D0602D4FD108E084ED1A8A4BE030
:103C800084ED178A48E084ED148A45E084ED1D8AAE
:103C900042E035488030012E2BD0022E15D0042E64
:103CA0003AD165B1202D07D0402D02D0602D33D1FF
:103CB00008E080ED048A2FE080ED018A2CE084ED9D
:103CC0001E8A29E080ED078A26E065B1202D07D005
:103CD000402D02D0602D1FD108E080ED058A1BE049
:103CE00080ED028A18E084ED1F8A15E080ED088AD5
:103CF00012E065B1202D07D0402D02D0602D0BD1F0
:103D000008E080ED068A07E080ED038A04E080ED9C
:103D1000008A01E080ED098A206A401C2062BDEC27
:103D2000028BBDE8F08100000050C347526563205C
:103D30002D3E20205049442053657474696E6720DD
:103D40004D6573736167652076203D202566200DE3
:103D50000A000000526563202D3E202025582025B2
:103D600058202558200D0A001800002052656320B5
:103D70002D3E202050494420696E6E6572207620C9
:103D80003D202566200D0A00704700002DE9F04116
:103D90001E4D0F460446EE682868001D00F06EFDBB
:103DA00038B9286890F82C1001208840296981438F
:103DB0002961601C15D1A7B115492A68486890602F
:103DC0002B688268DA602A688368121D5A602A6844
:103DD000121D8260286841610868401C0860BDE8C7
:103DE000F08128683444B4424460296805D2E86B05
:103DF000BDE8F041091D00F069BDA86B091D00F088
:103E000065FDA86A8442EAD2AC62E8E78801002036
:103E1000340300202DE9F041044600F06FFD364EDA
:103E2000B068401CB0603068344F10B1706940B366
:103E30002DE03460B068012829D1002505EB85000C
:103E400007EB800000F034FD6D1C052DF6D32B48E8
:103E5000643000F02DFD2948783000F029FD274816
:103E60008C3000F025FD2548A03000F021FD2348CE
:103E7000B43000F01DFD21486430B0631430F063AD
:103E800005E03068E16AC06A884200D83460706A30
:103E90000121401C70622064E06A32698140114354
:103EA000316100EB800007EB80004068A060816812
:103EB000E1608268211D51608160E06A00EB800052
:103EC00007EB8001616157F82010491C47F820106A
:103ED00000F034FD706900280CD03068E16AC06AD7
:103EE000884207D206494FF080500860BFF34F8FD9
:103EF000BFF36F8FBDE8F0818801002080020020B1
:103F000004ED00E010B500F0F9FC0E4C2068A0B9FB
:103F10000D4800F0CDFC0C48143000F0C9FC0A48F4
:103F2000E0601430206100220C210A2000F02CFFF8
:103F3000206010B105A100F083FDBDE8104000F045
:103F4000FDBC0000C801002048030020546D7251E0
:103F50000000000030B4026C0B46002A0BD0C16890
:103F60001144C1608468A14201D30168C16030BCC2
:103F70001846FCF767BB30BC70472DE9F041856BF4
:103F8000174604460026026C82B1C7B1E068FCF710
:103F900059FBE168206C091AE1602268914202D263
:103FA000A168081AE060022F16D017E02068A8B9AF
:103FB000A06801F041FA06460020A0600EE06068AB
:103FC000FCF740FB216C606808446060A16888428F
:103FD00004D32068606001E005B16D1E6D1CA5630F
:103FE0003046BDE8F08110B50446006B00F0BAFC25
:103FF0002046BDE8104000F0B5BC00000E484FF46C
:10400000F041420706D0C01D0B4920F00700411ABD
:10401000C1F5F041094B00220144C3E9000208390F
:10402000143B21F0070119604A600A600A1AC0E9CE
:1040300000129A605A60704770030020FC01002053
:10404000134E144DA6F1A0074FF08058DFF84890AA
:1040500011E000F053FCF068C468201D00F00EFC75
:10406000A868401EA8606868401E686000F066FC92
:104070002046FFF7B8FF68680028EAD138680128B1
:10408000F9D9C9F80080BFF34F8FBFF36F8FF2E704
:10409000200300208801002004ED00E02DE9F04716
:1040A0000D46DDE909841746824691009946089E2F
:1040B000A522206BFCF70BFB6FF00301206B01EBDB
:1040C0008701084420F00707780707D0502080F3C5
:1040D0001188BFF34F8FBFF36F8FFEE765B10020EC
:1040E0002218295C82F83410295C11B1401C0A287E
:1040F000F6D3002084F83D00052E07D3502080F32E
:104100001188BFF34F8FBFF36F8FFEE7E662201D6C
:10411000A66400F0D8FB04F1180000F0D4FB246181
:10412000C6F105006462A0614A465146384600F077
:1041300025FA2060B8F1000F01D0C8F80040BDE8B2
:10414000F087000030B5114900E011460A6882424C
:10415000FBD34B685C18844203D140681844486024
:10416000084643681C18944209D1084C143C246842
:10417000A24209D052681A4442600A68126802607A
:10418000814200D0086030BD0460F9E7FC010020E6
:1041900070B5002441600B4D0061914206D8D11AE0
:1041A0008269914206D2011D286907E09A4203D232
:1041B000994201D3012403E0011DE86800F086FB69
:1041C000204670BDC801002010B5044600F096FBE3
:1041D000A06B20B1002400F0B1FB204610BD0124EB
:1041E000F9E7000070B506460D480D46C068C06886
:1041F000C468201D00F042FB94F82800410705D553
:104200002A463146204600F0B5F803E000F0FE00F3
:1042100084F828002046216ABDE870400847000065
:10422000C80100207FB5374E63E00098002860DBAE
:10423000029C606910B1201D00F020FB03A800F073
:10424000BBF8054600980A2853D2DFE800F0520573
:1042500005282E460505282E94F828002A4640F009
:10426000010084F828000198A16903460144204612
:10427000FFF78EFF40B394F82800410707D5019857
:10428000A1692A460144204600F074F803E000F0DA
:10429000FE0084F82800216A2046884729E014F8A7
:1042A000280F00F0FE00207023E094F8280040F072
:1042B000010084F828000198A06130B141192B4613
:1042C0001A462046FFF764FF13E0502080F3118860
:1042D000BFF34F8FBFF36F8FFEE794F8280081077D
:1042E00003D4204600F03EFB03E000F0FE0084F81B
:1042F000280000226946306800F0EEFE002894D1C4
:104300007FBD0000C8010020F8B50D46064600F04C
:104310008BFC684600F050F80446009810B101F09C
:1043200055F9F8BD1148ADB101690968D9B1002549
:10433000311B2A46006800F0A9FB01F047F900286C
:10434000EFD10B494FF080500860BFF34F8FBFF3A0
:104350006F8FF8BDA642EBD801F038F92146304600
:10436000FFF740FFF8BD0125E2E70000C80100208B
:1043700004ED00E070B516460C46054604E0A86959
:10438000296A044428468847A86923460119324609
:104390002846FFF7FDFE0028F1D170BD0548816B6E
:1043A000096821B1816BC9680968816270474FF063
:1043B000FF31FAE7880100202DE9F041064600F0C0
:1043C000A1FF0E4D0446A868844214D24FF0FF3777
:1043D00004E0C06839460068FFF704FFE868016838
:1043E0000029F6D12969C5E9031001203060204673
:1043F000AC60BDE8F0810020F8E70000C8010020B3
:1044000008484068401C4FF0500080F3118804D0E9
:10441000BFF34F8FBFF36F8FFEE7BFF34F8FBFF335
:104420006F8FFEE7DC010020084CE068016839B1BD
:10443000002139B10020FFF767FFFFF7F3FEF4E733
:104440000121F6E7C0680068F5E70000C801002018
:104450002DE9F041044600F051FA94F9455004F179
:10446000240609E0606A48B1304601F041F808B11D
:1044700000F05CFB6D1E6DB2002DF3DC4FF0FF36DB
:1044800084F8456000F05AFA00F038FA94F9445084
:1044900004F1100709E0206948B1384601F028F816
:1044A00008B100F043FB6D1E6DB2002DF3DC84F803
:1044B0004460BDE8F04100F041BA000070B5044628
:1044C000002500F0B1FB2C4E306808B9FFF796FDCF
:1044D0007CB304F00700C0F11000C1438C423DD80A
:1044E000211800293ADD7068814237D8224A1432F7
:1044F0001046046801E0224604466068884202D201
:1045000020680028F7D13068844227D015682068D9
:10451000106060680835421A102A0FD960184307E6
:1045200008D0502080F31188BFF34F8FBFF36F8FF7
:10453000FEE713E042606160FFF704FE61687068A7
:10454000401A7060B268904200D2B06041F0004002
:10455000606000202060F068401CF06001F036F8D8
:10456000680707D0502080F31188BFF34F8FBFF347
:104570006F8FFEE7284670BDE801002010B5031FCD
:104580004FF080741C601B1F21F001011960191F7E
:10459000044B0B6014390A60091F6FF002024438A3
:1045A0000A6010BD014400081CB550248DF801407C
:1045B0008DF802008DF804208DF803108DF8053079
:1045C0006846FFF723FA9DF8011008438DF80100B3
:1045D000684600F001F81CBD70B505460024FF20B8
:1045E000094E287040213046FEF73FF80028F9D0E8
:1045F000295D3046FEF7D2F8641C062CF2DB034935
:10460000C86F401CC86770BD00440040980000207F
:1046100010B50446417800231A46A020FFF7C4FFD6
:104620006378002101221248082B20D2DFE803F032
:1046300007040A0D1013161982700EA013E0817082
:1046400013A010E0C27018A00DE0C1701CA00AE019
:10465000817021A007E0817025A004E081702BA06B
:1046600001E0817030A0BDE81040FBF79DBE10BD99
:1046700018000020526563202D203E2047666C798B
:1046800020556E6C6F636B6564200D0A000000009E
:10469000526563202D203E2047666C79204C6F6365
:1046A0006B6564200D0A0000526563202D203E20BA
:1046B0005049445F454E41424C45200D0A000000E0
:1046C000526563202D203E205049445F44495341A8
:1046D000424C45200D0A0000526563202D203E20EB
:1046E0005049445F495F434C45414E200D0A00004C
:1046F000526563202D203E2047464C595F5245436A
:104700004B5F44415441200D0A0000005265632074
:104710002D203E2047666C79205049445F52455316
:104720004554200D0A000000526563202D203E20D4
:1047300047666C792047464C595F4F50454E5F4C59
:1047400049474854200D0A0000B52DED048B83B075
:1047500041EC190B01F002FC41EC180B18EE100AA9
:1047600018EE901A8DED008B002818BF0120084329
:1047700020F00040C0F17F6000F1E040C00F14D095
:1047800019EE101A19EE900A8DED009B002918BF42
:104790000121084320F00040C0F17F6000F1E040BB
:1047A000C00F04BF0120FBF7ECFF51EC180B03B066
:1047B000BDEC048B00BD00007CB5002207210A205F
:1047C00000F0E2FA0B490124650288600846CDE951
:1047D000004000232A4608A10A4800F057FD05487A
:1047E0000023001DCDE900402A4607A1094800F03A
:1047F0004DFD7CBD0402002047666C795461736BEB
:104800000000000071180008466C795F506964541C
:1048100061736B00C51700088178F5EE000A00EEA1
:10482000101A1449B8EE400A81ED0C0AC17800EE66
:10483000101A1149F8EE401AB3EE040AB0EE401A0D
:1048400011EEA01A81ED011A027901EE102AF8EE9C
:10485000411AB0EE401A11EEA01A81ED021A407909
:1048600001EE100AB8EE411A11EE200A81ED030A9A
:10487000704700001800002018010020D0E9013224
:1048800001699A60D0E901235A604A68824201D1E5
:1048900082684A60002202610868401E0860086859
:1048A00070470000014880687047000088010020C0
:1048B00000F108014FF0FF32C0E90112C16001614F
:1048C00000210160704700210161704730B50C681C
:1048D000621C02D000F1080202E0026904E01A46FC
:1048E00053681D68A542FAD953684B6099608A6085
:1048F000516008610168491C016030BD502080F39F
:104900001188BFF34F8FBFF36F8F0A494868401C6F
:10491000486001280CD10848006810F0FF0F07D04C
:10492000502080F31188BFF34F8FBFF36F8FFEE7E6
:1049300070470000DC01002004ED00E008494868F1
:1049400028B1401E486001D180F311887047502083
:1049500080F31188BFF34F8FBFF36F8FFEE7000026
:10496000DC01002070B500282AD0A0F1080460689E
:10497000002807DB502080F31188BFF34F8FBFF36F
:104980006F8FFEE7216839B1502080F31188BFF3A3
:104990004F8FBFF36F8FFEE720F00040606000F0A4
:1049A00043F9084D60686968084468602046FFF76D
:1049B000C9FB2869401C2861BDE8704000F006BEB4
:1049C00070BD0000E80100204FF0E02000210161EF
:1049D000816105494FF47A720968B1FBF2F1491E11
:1049E00041610721016170470400002010B5FBF709
:1049F000B5FC114910280ED300F1E02090F8F00327
:104A00000A78904207D2502080F31188BFF34F8F6D
:104A1000BFF36F8FFEE709480068896800F4E06023
:104A2000884207D9502080F31188BFF34F8FBFF31E
:104A30006F8FFEE710BD0000DC0100200CED00E0F0
:104A400070B5002358B100291DD00F4D002205EB91
:104A5000C204666886420AD105EBC2030FE050200B
:104A600080F31188BFF34F8FBFF36F8FFEE71BB941
:104A700055F8326006B92346521C082AE7D3002BAA
:104A800001D0C3E9001070BD4002002070B515468A
:104A90000E460446FFF732FF94F944100020491CEB
:104AA00001D184F8440094F94510491C01D184F8DF
:104AB0004500FFF743FFA06B28B92A46314604F1B1
:104AC000240000F051F82046BDE87040FFF7C0BC5C
:104AD00010B5020014D00F48406B38B1502080F35D
:104AE0001188BFF34F8FBFF36F8FFEE700F09CF884
:104AF00000211046FFF74AF900F068FD002807D1B1
:104B000005494FF080500860BFF34F8FBFF36F8FA0
:104B100010BD00008801002004ED00E002490A6A8F
:104B20000260C96841607047880100200149012086
:104B3000C86170478801002010B50C4650B1094982
:104B400009681831FFF7C2FE2046BDE81040012178
:104B5000FFF71CB9502080F31188BFF34F8FBFF3CC
:104B60006F8FFEE788010020F0B40C46D0B1114BE6
:104B700041681D68E9618D681E6835621D688E6830
:104B8000183575601D6818358D6019688862016870
:104B9000491C01600AB14FF0FF342046F0BC1146B9
:104BA000FFF7F4B8502080F31188BFF34F8FBFF3A5
:104BB0006F8FFEE7880100207CB517480025CDE9FE
:104BC00000502B46822215A1164800F05FFB124CC4
:104BD0002C3C012803D100F08DFD012802D0401C9F
:104BE00011D00EE0502080F31188BFF34F8FBFF338
:104BF0006F8F4FF0FF30A06201206061E56000F030
:104C000049F8206B7CBD502080F31188BFF34F8F93
:104C1000BFF36F8FFEE70000B401002049444C450C
:104C200000000000414000080248416B491C4163FC
:104C30007047000088010020144A506B10B1012019
:104C4000D06170470020D06110691149B0FA80F03E
:104C5000C0F11F0000EB800051F820306BB101EB78
:104C6000800000F10803416849684160994201D120
:104C700049684160C86810607047502080F311880F
:104C8000BFF34F8FBFF36F8FFEE700008801002056
:104C9000800200201CB537480168374A914207D18D
:104CA000502080F31188BFF34F8FBFF36F8FFEE763
:104CB00000683149491E884207D1502080F311888D
:104CC000BFF34F8FBFF36F8FFEE72C490878019039
:104CD000FF20087008788DF800009DF800009DF80E
:104CE000002000F0F000904207D0502080F311889F
:104CF000BFF34F8FBFF36F8FFEE79DF80000204C8E
:104D000000F0500020700720A06006E0401EA06068
:104D10009DF8000040008DF800009DF8000000069E
:104D2000A068F3D4032807D0502080F31188BFF384
:104D30004F8FBFF36F8FFEE74FF44070A060019874
:104D400008700C482030016841F47001016001686E
:104D500041F070410160FFF737FE00206060FBF713
:104D6000C5FA0848016841F040410160FBF7AAFA22
:104D700000201CBD00ED00E071C20F4100E400E026
:104D8000DC01002034EF00E02DE9F04117460E462B
:104D9000050020D04FF0FF30B0FBF5F0B0421AD341
:104DA00005FB06F010F1510F15D85030FFF786FBC8
:104DB00004000CD004F150005EB12060C4E90F562D
:104DC0002046012100F010F8204684F84C70BDE820
:104DD000F0812460F2E7502080F31188BFF34F8FF9
:104DE000BFF36F8FFEE700002DE9F0410E4604008F
:104DF0004FF001052CD0E06B90B3AF1EB7FBF0F184
:104E0000206C81423DD3FFF779FDD4E90F20216862
:104E100002FB0011A1600021A163216861600A46C4
:104E2000D4E90F01401E00FB01212046E16000F89B
:104E3000447F477004F110009EB1FFF739FD04F183
:104E40002400FFF735FDFFF779FD2846BDE8F08126
:104E5000502080F31188BFF34F8FBFF36F8FFEE7B1
:104E60000FE021690029EED000F042FB0028EAD0D3
:104E700008494FF080500860BFF34F8FBFF36F8F2A
:104E8000E1E7502080F31188BFF34F8FBFF36F8F9E
:104E9000FEE7000004ED00E02DE9FF4F83B01F4660
:104EA0008B4604004FF0000603D0BBF1000F08D082
:104EB00011E0502080F31188BFF34F8FBFF36F8F45
:104EC000FEE7206C38B1502080F31188BFF34F8F7C
:104ED000BFF36F8FFEE7022F0AD1E06B012807D0E6
:104EE000502080F31188BFF34F8FBFF36F8FFEE721
:104EF00000F0FAF9DFF800914FF0000A4FF0805807
:104F000048B9059838B1502080F31188BFF34F8F0E
:104F1000BFF36F8FFEE7FFF7F1FCA06BE16B8842F8
:104F200005D3022F03D00598C8B1DEB11EE03A4682
:104F300059462046FFF721F8616A19B104F12400AF
:104F400000F0D6FA28B1C9F80080BFF34F8FBFF345
:104F50006F8FFFF7F3FC012007B0BDE8F08FFFF77C
:104F6000EDFC21E06846FFF7D9FD0126FFF7E6FCDE
:104F7000FFF75AFEFFF7C2FC94F94400401C01D130
:104F800084F844A094F94500401C01D184F845A060
:104F9000FFF7D4FC05A9684600F03AF930B1204685
:104FA000FFF756FA00F012FB0020D5E7FFF7A6FC4A
:104FB000A06BE16B884201D1012500E00025FFF7DD
:104FC000BDFC95B104F110000599FFF7B5FD204631
:104FD000FFF73EFA00F0FAFA00289CD1C9F80080E9
:104FE000BFF34F8FBFF36F8F95E72046FFF730FA7F
:104FF00000F0ECFA8FE7000004ED00E02DE9F04747
:105000001F4690468946040003D0B9F1000F08D02E
:1050100011E0502080F31188BFF34F8FBFF36F8FE3
:10502000FEE7206C38B1502080F31188BFF34F8F1A
:10503000BFF36F8FFEE7022F0AD1E06B012807D084
:10504000502080F31188BFF34F8FBFF36F8FFEE7BF
:10505000FFF7CCFC5020EFF3118680F31188BFF3EB
:105060004F8FBFF36F8FA06BE16B884206D3022F87
:1050700004D0002086F31188BDE8F08794F94550EC
:10508000A06B3A4649462046FEF777FF681C0AD0D7
:10509000FFF708FC854204D27F2D14D06D1C84F8E4
:1050A00045500120E6E7606A0028FAD004F12400A8
:1050B00000F01EFA0028F4D0B8F1000FF1D0012161
:1050C000C8F80010EDE7502080F31188BFF34F8F30
:1050D000BFF36F8FFEE700002DE9F74783B08A46E4
:1050E00004004FF0000603D0BAF1000F08D011E021
:1050F000502080F31188BFF34F8FBFF36F8FFEE70F
:10510000206C38B1502080F31188BFF34F8FBFF36C
:105110006F8FFEE700F0E8F8DFF8F09000274FF01F
:10512000805848B9059838B1502080F31188BFF3F2
:105130004F8FBFF36F8FFEE7FFF7E0FBA56BC5B1A5
:1051400051462046FEF706FF6D1EA563206950B14B
:1051500004F1100000F0CCF928B1C9F80080BFF3C9
:105160004F8FBFF36F8FFFF7E9FB012006B0BDE85B
:10517000F087059808B11EB106E0FFF7DFFB27E0D6
:105180006846FFF7CBFC0126FFF7D8FBFFF74CFD85
:10519000FFF7B4FB94F94400401C01D184F844703B
:1051A00094F94500401C01D184F84570FFF7C6FB17
:1051B00005A9684600F02CF8002820460AD0FFF721
:1051C00047F900F003FA2046FEF7FEFF0028B3D0AF
:1051D0000020CBE7FEF7F8FF90B104F12400059919
:1051E000FFF7AAFC2046FFF733F900F0EFF900289B
:1051F000A2D1C9F80080BFF34F8FBFF36F8F9BE739
:105200002046FFF725F900F0E1F995E704ED00E00D
:105210002DE9F0410C46050014D0DCB1FFF76EFB20
:10522000194EF1686B682268C81A571C1AD02F688B
:10523000D6F820C00026674516D08B4214D8012529
:1052400026601BE0502080F31188BFF34F8FBFF31F
:105250006F8FFEE7502080F31188BFF34F8FBFF3AD
:105260006F8FFEE7002509E0824205D9101A206001
:105270002846FFF753FCF5E701252660FFF75EFBA4
:105280002846BDE8F0810000880100202DE9FF5F7D
:105290008346DDE90E87994616468A469000FFF759
:1052A0000DF905001DD05820FFF708F9040015D0AE
:1052B0005821FBF736FA25630021CDE90241CDE9FB
:1052C00000874B46324651465846FEF7E7FE2046D9
:1052D000FEF7A0FD012004B0BDE8F09F2846FFF7CF
:1052E00041FB4FF0FF30F6E70548416919B1406BCB
:1052F00018B100207047012070470220704700005D
:10530000880100200148C068704700008801002023
:105310002DE9F041464E0025706B28B1B069401C64
:10532000B0612846BDE8F081F468641CF46013D1D4
:10533000B06B006838B1502080F31188BFF34F8FF5
:10534000BFF36F8FFEE7B06BF16BB163F063306A50
:10535000401C3062FFF722F8B06ADFF8D8E08442E0
:105360000BD34FF0000CB06B0068A0B1B06BC068FD
:10537000C1684868844211D2B0623068C06A00EBEC
:1053800080005EF82000012800D90125F06900287E
:10539000C7D00125C5E74FF0FF30EDE7D1E9023274
:1053A00048699A60D1E902235A6043680A1D934212
:1053B00001D1CB684360C1F814C003685B1E036071
:1053C000886A88B1D1E907379F60D1E907377B60E8
:1053D000476801F118039F4201D10B6A4360C1F88D
:1053E00028C003685B1E0360C86A012337698340D5
:1053F0003B43336100EB80000EEB80004068886027
:105400008368CB6083685A608260C86A00EB800062
:105410000EEB80024A615EF82020521C4EF82020DC
:10542000C86A3168C96A88429DD901259BE7000096
:10543000880100208002002070B504004FF00000B9
:1054400050D0294D29688C4207D0502080F3118814
:10545000BFF34F8FBFF36F8FFEE7E16C69B1491E59
:10546000E164A36CE26A9A423CD000293AD1201D43
:10547000FFF704FA012140B10EE0502080F31188BB
:10548000BFF34F8FBFF36F8FFEE794F82C002A69AC
:1054900001FA00F082432A61A06CE062C0F10500CD
:1054A000A061E06A2A698140114329610F4A00EB3B
:1054B000800002EB80004068A0608168E160836842
:1054C000211D59608160E06A00EB800002EB8000E2
:1054D0006061E06A00EB800052F82010491C42F83D
:1054E0002010012070BD00008801002080020020F3
:1054F00070B5C068C06850B3D0E90732816A9A605D
:10550000D0E907235A604B6800F11802934201D199
:10551000036A4B60002585620B685B1E0B60294B9C
:10552000596B0124D9B1284D6968C1618E68066242
:105530008E6872608A6085622968491C2960C06A29
:105540001968C96A88423AD90120DC6170BD5020CF
:1055500080F31188BFF34F8FBFF36F8FFEE7D0E961
:1055600002624169B260D0E9022672604E68021D93
:10557000964201D1C6684E6045610D686D1E0D6092
:10558000C16A1E6904FA01F535431D610E4D01EB38
:1055900081018C3D05EB8101496881608E68C660A0
:1055A0008E6872608A60C16A01EB810105EB81023D
:1055B000426155F82120521C45F82120BFE7002008
:1055C00070BD0000880100200C0300202DE9F04789
:1055D000454D0024A146686B38B1FFF78FF9686B21
:1055E000401E6863686B40B179E0502080F31188F9
:1055F000BFF34F8FBFF36F8FFEE7A868DFF8ECC0F3
:1056000000264FF00108E0BB69E0DCF80C00C4683C
:10561000D4E90721A06A9160D4E907125160426879
:1056200004F118018A4201D1216A4160A662016831
:10563000491E0160D4E9022160699160D4E9021237
:1056400051604268211D8A4201D1E2684260666170
:105650000268521E0260E06A2F69434608FA00F2AF
:105660003A432A61214A00EB80008C3A02EB800029
:105670004068A0608768E760876879608160E06A59
:1056800000E00FE000EB800002EB8001616152F866
:105690002010491C42F82010E06A2968C96A884233
:1056A00000D3EB61DCF800000028AED10CB1FEF7AE
:1056B00075FEAC693CB14746FFF72AFE00B1EF61C9
:1056C000641EF9D1AE61E86948B109494FF08050D4
:1056D0004FF001090860BFF34F8FBFF36F8FFFF7E3
:1056E0002DF94846BDE8F087880100200C03002012
:1056F00004ED00E01CB5FEF705FC0D48006868B13C
:105700000B490220091DCDE9000100234FF48272EC
:1057100008A10A48FFF7BAFD002807D1502080F3FE
:105720001188BFF34F8FBFF36F8FFEE71CBD0000E2
:10573000C8010020546D722053766300294400088C
:1057400010B500290AD00878002807D00548784409
:10575000FBF728FC002801D0002010BD0248784447
:1057600010BD0000D60E0000CE0E000081F00041FA
:10577000704780F00040704721F00041704720F0F2
:105780000040704721F00042A2F16052B2F5801F44
:1057900001F0004328BFD2F17F6C0BD95FEA001CF7
:1057A00043EAC20242EB507018BF704728BF20F096
:1057B00001007047B2F5801FBCBF184670474FEA22
:1057C000410C1CF5001F02D2084600F0F3BD70B575
:1057D00000F02EFB00000089FFF7F6BF4FF00040FD
:1057E000A0F580007047000010B591EA030F48BF94
:1057F00083F0004300F18684841A71EB030C05D218
:10580000121943EB0C03001B61EB0C01DFF824E1E0
:105810004FEA1154A4EB135C1EEA430F18BF9EEA33
:10582000445F73D023EA0E03DCF1200E21EA045119
:1058300043F4801332D322FA0CFE10EB0E0023FA4D
:105840000CFE41EB0E01CCF1200E03FA0EFE10EB24
:105850000E0051F10001B1F5801FCCF1200E32D2C3
:1058600001EB045112FA0EF2BDE8104058BF704728
:10587000401C38BF5FEA420218BF7047002814BFBF
:1058800020F0010041F100014FEA410313F5001F30
:1058900038BF7047A1F1C04100F018BB012A43EBAB
:1058A0000302ACF1200CDCF11F0E32BF4FF0000EF2
:1058B00023FA0CF310EB030041EB0451B4EB115F3E
:1058C000D0D0A1EB045101F5801149085FEA300006
:1058D00001EB04510ED350F1000038BF12FA0EFE56
:1058E00008D1BDE81040C9E7401C38BF5FEA42025A
:1058F000CAD1C3E7BDE810404FEA410313F5001FCA
:1059000038BF7047A1F1C04100F0E0BA9EEA445FA1
:1059100008D011EA5E0FBDE8104004BF01F000415D
:1059200000207047BDE8104070B500F081FA00BF5C
:1059300064FBBE3E0000E0FF02494FF0000000F0B3
:1059400040BD00BF0000F87F491058BFC1F1404181
:105950005B1058BFC3F140438B42EFF300807047A8
:105960002DE9C04130B4DFF8A0C23CEA111418BFE1
:105970003CEA131400F0EC8081EA03051CEA1114E0
:1059800044EAD57418BF1CEA131500F0C780A4EBD5
:1059900005044FF0004545EAC12145EAC32341EA29
:1059A000505143EA525304F17F74994204F5003494
:1059B0004FEAC0204FEAC22208BF904200F09C800C
:1059C0004FEA13650FF24016765D4FEA134506FB6A
:1059D00005F7C7F1807706FB07F74FEAD737A7FB34
:1059E00003687642C8F58038A7FB06CE38BFA8F119
:1059F000010807FB08E64FF0000EA6FB028CE6FB51
:105A000003CEDCF1000CCEF1004E38BFAEF1010E3A
:105A1000A6FB0C584FF000074FF00005E6FB0E8781
:105A2000A1FB08C6A0FB07CE16EB0E0645F100054C
:105A3000E1FB076515F1E04E7EBFA4F580345FEA17
:105A400046066D4116F1800745F100054FEA17271C
:105A50004FEA066647EA0567A6F1DE46B6F1805FC3
:105A60004FEA15251FD9384624F0010C05EBC47107
:105A7000BCF1FE6F01EB0C1102D8F0BCBDE8008157
:105A800024425CBF01F5801E9EEAC47F02D4F0BCB4
:105A9000BDE80081244238D4F0BCA1F1C041BDE88A
:105AA000004100F013BA4FEAD22242EA43524FEAD1
:105AB000D323A7FB02864FEAD02040EA415007FBE0
:105AC00003661EEA0E0F4FEAD12105FB026658BF9E
:105AD000A6EB0056B6EB00564FEA520E4EEAC37ED6
