:020000040800F2
:100000004082002065030008F1290008B92000089B
:100010009529000899190008A53300080000000080
:10002000000000000000000000000000A502000821
:10003000F11B00080000000001030008AD2E0008BD
:100040007F0300087F0300087F0300087F03000888
:100050007F0300087F0300087F0300087F03000878
:100060007F0300087F0300087F0300087F03000868
:100070007F0300087F0300087F0300087F03000858
:100080007F0300087F0300087F03000800000000D2
:100090000000000000000000000000007F030008D6
:1000A0007F0300087F0300087F0300087F03000828
:1000B0007F030008352F00087F0300087F03000836
:1000C0007F0300087F0300087F0300087F03000808
:1000D0007F030008392F00083D30000800000000B1
:1000E0007F0300087F0300087F0300080000000072
:1000F0000000000000000000000000007F03000876
:10010000000000007F0300087F0300087F03000851
:1001100000000000000000000000000000000000DF
:100120007F0300087F0300087F0300087F030008A7
:100130007F03000800000000000000000000000035
:100140000000000000000000000000007F03000825
:100150007F0300087F0300087F0300084531000883
:100160007F0300087F03000800000000000000007B
:10017000000000000000000000000000000000007F
:10018000000000007F0300080000000000000000E5
:100190007F0300087F03000800F002F800F072F807
:1001A0000AA090E8000C82448344AAF10107DA45D2
:1001B00001D100F067F8AFF2090EBAE80F0013F0B2
:1001C000010F18BFFB1A43F001031847CCAD000024
:1001D000ECAD00000A444FF0000C10F8013B13F0A6
:1001E000070408BF10F8014B1D1108BF10F8015B90
:1001F000641E05D010F8016B641E01F8016BF9D183
:1002000013F0080F1EBF10F8014BAD1C0C1B09D1D9
:100210006D1E58BF01F801CBFAD505E014F8016B4B
:1002200001F8016B6D1EF9D59142D6D370470000DD
:100230000023002400250026103A28BF78C1FBD8EF
:10024000520728BF30C148BF0B607047662909F0CC
:100250009C86642900F02881782900F06181632957
:1002600000F0F285002070471FB509F084FE00F011
:100270003BFE04000020002109F048F8E0601FBDAB
:1002800010B510BD00F04CFF1146FFF7EDFF05F073
:10029000B5FE00F06AFF03B4FFF7F2FF03BC04F001
:1002A00072FC00002C4B19680868B0E8F04F80F32E
:1002B0000988BFF36F8F4FF0000080F311887047FB
:1002C0000000000008480068006880F308884FF0CC
:1002D000000080F3148862B661B6BFF34F8FBFF39E
:1002E0006F8F00DF00BF00BF08ED00E0DFF80C00FB
:1002F000016841F470010160704700BF88ED00E0C3
:10030000EFF30980BFF36F8F134B1A681EF0100FC5
:1003100008BF20ED108A20E9F04F106009B44FF0BB
:10032000500080F31188BFF34F8FBFF36F8F08F039
:1003300049F94FF0000080F3118809BC196808687A
:10034000B0E8F04F1EF0100F08BFB0EC108A80F339
:100350000988BFF36F8F7047D8010020EFF3058045
:10036000704700000948804709480047FEE7FEE75C
:10037000FEE7FEE7FEE7FEE7FEE7FEE7FEE7FEE755
:1003800004480549054A064B70470000D92E00086D
:1003900099010008407C002040820020407E00201F
:1003A000407E0020704710B54C1084EA530404D5F9
:1003B0004042C1F1000138BF491E1B4204D55242E0
:1003C000C3F1000338BF5B1E00F04CFA14F0804FFD
:1003D00004D04042C1F1000138BF491E14F0004F63
:1003E00004D05242C3F1000338BF5B1E10BD0000B1
:1003F0000FB4044910B503AA029800F031FD10BCF7
:100400005DF814FB4001002070B504468569006862
:10041000C10601D5302600E02026C00707D070BDF8
:10042000D4E9012130469047206A401C20626D1EAD
:10043000F6D570BD70B5044685690078C00707D150
:1004400070BDD4E9012120209047206A401C206221
:100450006D1EF6D570BD70B50C460546012A05D057
:100460002878800600D5EA69002302E0012305E030
:100470005B1C934202D2E05C0028F9D1A869E6181F
:10048000C01AA861286A184428622846FFF7BCFFF2
:1004900004E0D5E9012114F8010B9047B442F8D3E8
:1004A0002846FFF7C7FF70BD2DE9F041064600243E
:1004B00010687529314616A510D0AFF300800028CA
:1004C00002DA404213A507E031688A0701D512A578
:1004D00002E0490704D511A5012401E0AFF3008033
:1004E00000210A2206F1240709E0B0FBF2FCB0FB70
:1004F000F2F302FB1C00303078541846491C0028E7
:10050000F3D123462A463046BDE8F04100F02CBA2C
:10051000000000002D0000002B0000002000000063
:1005200070B504460D4621461068AFF3008021885F
:10053000090502D50F4A7A4402E00E4A7A440E3287
:10054000002104F1240305E000F00F060009965D88
:100550005E54491C0028F7D120780023000704D5F9
:10056000702D02D009B1022311322046BDE870403F
:1005700000F0FAB98CA700002DE9F0474FF0000A0F
:1005800089460446C0F820A02046E1688847002834
:1005900076D0252806D0D4E901219047206A401C56
:1005A0002062F1E7E168204600268847C4F81CA0D5
:1005B00005460027C4F818A02A2D09D0284604F0C3
:1005C000DBFA38B304EB8708303DC8F8185019E05F
:1005D00059F8041B204604EB87029161E1688847C3
:1005E000012F054618D1E069002820DA26F0200600
:1005F0001DE0D8F8180000EB800005EB4000303813
:10060000C8F818002046E1688847054604F0B4FAA7
:100610000028EED1012F0AD02E2D08D12046E16806
:1006200088477F1C0546022F46F02006C4DBA069E0
:10063000002803DA404246F00106A061F00701D02D
:1006400026F010066C2D0AD0682D08D04C2D39D01C
:100650006A2D35D0742D35D07A2D33D016E0E1686F
:100660002F4620468847B84205460AD16C2F27D02E
:100670004FF48060E168064320468847054605E060
:1006800027E06C2F1AD04FF4807006430DB3A5F10C
:100690004100192802D8203546F400664A4629460A
:1006A000204626604E46FFF7D1FD80B101280BD0D1
:1006B000F61D26F0070000F1080965E74020E4E791
:1006C0008020D7E70020D5E706F104095CE728463B
:1006D00061E7206ABDE8F08740EA010310B59B0797
:1006E0000FD1042A0DD310C808C9121F9C42F8D09C
:1006F00020BA19BA884201D9012010BD4FF0FF304D
:1007000010BD1AB1D30703D0521C07E0002010BD62
:1007100010F8013B11F8014B1B1B07D110F8013BEE
:1007200011F8014B1B1B01D1921EF1D1184610BDCF
:10073000032A40F2308010F0030C00F0158011F80D
:10074000013BBCF1020F624498BF11F801CB00F8E5
:10075000013B38BF11F8013BA2F1040298BF00F839
:1007600001CB38BF00F8013B11F0030300F08A838E
:10077000083AC0F0088051F8043B083A51F804CB1D
:10078000A0E80810F5E7121D5CBF51F8043B40F8E3
:10079000043BAFF30080D20724BF11F8013B11F8EE
:1007A00001CB48BF11F8012B24BF00F8013B00F832
:1007B00001CB48BF00F8012B704702F0FF0343EA6A
:1007C000032242EA024200F002B84FF0000204297C
:1007D000C0F0128010F0030C00F01B80CCF1040C70
:1007E000BCF1020F18BF00F8012BA8BF20F8022BA4
:1007F000A1EB0C0100F00DB85FEAC17C24BF00F84A
:10080000012B00F8012B48BF00F8012B70474FF077
:10081000000200B5134694469646203922BFA0E850
:100820000C50A0E80C50B1F12001BFF4F7AF09075C
:1008300028BFA0E80C5048BF0CC05DF804EB89004D
:1008400028BF40F8042B08BF704748BF20F8022B90
:1008500011F0804F18BF00F8012B704770477047A8
:100860007047704753EA020C00F069802DE9F04BA5
:100870004FF00006002B1FBFB3FA83F503FA05F40F
:1008800024FA05F65E4012BF1643B2FA82F502FA68
:1008900005F4C5F120051EBF22FA05FC44EA0C044C
:1008A000203556EA044C4FEA144418BF641C4FF03C
:1008B00000084FF00009904271EB030C39D3002976
:1008C00019BFB1FA81F701FA07F6B0FA80F700FA1A
:1008D00007F6C7F120071EBF20FA07FC46EA0C0600
:1008E0002037B6FBF4FCA7EB0507103F07F01F0B02
:1008F000CBF120060CFA0BFB2CFA06F644BFB346EC
:100900000026202FA4BF5E464FF0000B5BEA060CCA
:1009100008BF4FF0010B19EB0B09ABFB027C48EB56
:100920000608C01B06FB02CC0BFB03CC71EB0C01D1
:10093000C1E70B46024641464846BDE8F08B13B579
:100940004FF000004FF00001AFF30080BDE81C4005
:10095000704710B500F0CCFA006810BD10B5044621
:1009600000F0C6FA046010BD2DE9F0470D46994627
:100970009246044600F124080168880604D5E0691F
:1009800021F01001216000E00120A84201DD471B99
:1009900000E00027A1697A1902EB0900081AA0619A
:1009A0002078C00602D42046FFF72EFD002608E07E
:1009B000D4E901211AF806009047206A401C761CF1
:1009C00020624E45F4DB2078C0060AD52046FFF7AA
:1009D0001BFD06E0D4E9012130209047206A401C2D
:1009E0002062381EA7F10107F4DC07E0D4E90121F9
:1009F00018F805009047206A401C2062281EA5F1C7
:100A00000105F3DC2046FFF715FD2078000602D52E
:100A10000220BDE8F0870120FBE770472DE9FF4F7A
:100A20000C461E464FF0FF378BB0D2E90001DDF8CF
:100A300060800A908A46C1F30A5505B93D460021F7
:100A400008464FF00000BAF1000F00F4400005DA4C
:100A500000EB80004FF4400101EA50004FEA90594A
:100A6000B9F1010F00DDB9460A9850EA4A000ED0EC
:100A700044F61050A5F2FF3545432F14B8F1000F8E
:100A80001ED07542291E1EDDC9F100021CE0B8F11E
:100A9000010F4FF0000001D0302103E0F24305E0E8
:100AA0002154401CB042FBDB30460022002121547F
:100AB0000B99C1F80880C1E900200FB0BDE8F08FA4
:100AC000BD1B6D1CDEE74A4600DA694206A800F04D
:100AD000B1FA06AB93E8070003AB83E80700504682
:100AE0000A9900F08BFB8DE80700A0F500501F3835
:100AF00000900398002D09DD42F21F014A46084488
:100B000003A90390684600F0EAFD08E0A0F5005054
:100B10004A461F3803A90390684600F0F4FD8DE8AB
:100B200007000004000C03D04FF0FF30410800E044
:100B30001046B8F1000F03D00022009215461EE0C7
:100B4000751E05D400F0D8F9303262556D1EF9D506
:100B5000B3460122084302D000227F1C04E0207823
:100B6000302801D100227F1E002A099786D01DE07F
:100B7000112D07DA00F0C0F9303262556D1C50EAD1
:100B80000102F5D1084302D00098C8B10EE000215F
:100B9000681E05E0235C625C63542254401E491CBD
:100BA0008142F7DBAB46A81B401E0990002004F8E9
:100BB0000B000B98099AC0F80880C0E9002B7CE76D
:100BC00011264FF0000859E72DE9F04F88460446FA
:100BD000D21D22F0070191B0D1E90001CDE90A014F
:100BE00002F09EFC02460B98C00F01D02D2007E0BA
:100BF0002068810701D52B2002E0202101EAC000F6
:100C0000032A099001D0072A05DB03464146204606
:100C100000F0D0F90BE12078800601D5E06900E012
:100C20000620B8F1650F814606D0B8F1660F18D0DE
:100C3000B8F1670F70D131E00020B9F1110F0090C9
:100C400001DB112301E009F101030AAA01A90CA8A3
:100C5000FFF7E4FEDDE90C70002609F1010583468B
:100C600047E001204B4600904FF000470AAA01A937
:100C70000CA8FFF7D3FEDDE90DB00C995D46002608
:100C800010B909F101000D18B9EB050003D4C0F14A
:100C9000FF3609F10105A5EB09002BE0B9F1010FC1
:100CA00001DA4FF001090020B9F1110F0090484618
:100CB00001DD112300E003460AAA01A90CA8FFF7F1
:100CC000ADFEDDE90C704D46002683462078000716
:100CD0000AD4AB4500DA5D4601A8012D04DD4119B7
:100CE00011F8011C302907D04F4502DA17F1040F23
:100CF00004DA012082460FE06D1EEEE7002F02DCD1
:100D0000ED1B3E4403E0781CA84200DD7D1CB81BAF
:100D100000F1010A4FF000472078000703D4AA45EC
:100D200001DB4FF0FF3A0021B7F1004F0DF143080E
:100D30008DF8431024D002202B23002F01DA7F42AC
:100D40002D230A21021EA0F1010000DC5FB197FBF8
:100D5000F1FC97FBF1F201FB1C7C17460CF1300C07
:100D600008F801CDEEE7A8F101000370218809051C
:100D700001D5452100E06521A0F1010800F8011C22
:100D800009980FA9A1EB0807FF1D00B10120411927
:100D900001EBEA70A1693844081A401EA06120786E
:100DA000C00602D42046FFF72FFB099828B1D4E9EA
:100DB00001219047206A401C20622078C00622D57D
:100DC0002046FFF721FB1EE0002E04DBB34502DDC9
:100DD00001A8805D00E03020D4E901219047206A1D
:100DE000401C2062761CAAF101005FEA000A0AD1C9
:100DF00000F07AF8C0680168405CD4E901219047AE
:100E0000206A401C2062281EA5F10105DCDC07E0F9
:100E1000D4E9012118F8010B9047206A401C206298
:100E2000381EA7F10107F3DC2046FFF703FB032080
:100E300011B043E610B5436913B1AFF3008001E090
:100E4000FFF709FB012010BD127800F124010A70A0
:100E500000224A700122EDE711684FF0FF32E9E706
:100E6000074B70B50D467B4400F091F804462846C8
:100E700000F04EF910B14FF0FF3070BD204670BD4C
:100E8000FB4A000010B5203AC0F00B80B1E81850C2
:100E9000203AA0E81850B1E81850A0E81850BFF464
:100EA000F5AF5FEA027C24BFB1E81850A0E8185003
:100EB00044BF18C918C0BDE810405FEA827C24BF57
:100EC00051F8043B40F8043B08BF7047D20728BFE5
:100ED00031F8023B48BF11F8012B28BF20F8023B34
:100EE00048BF00F8012B704700487047FC7B00208A
:100EF00000487047DC7B002030B5B0F10A024FEAB1
:100F0000900E71F100034EEA817EB0EB0E0061EBB2
:100F100091014FEA101E4EEA017E10EB0E0041EBEC
:100F200011114FEA102E4EEA016E10EB0E0041EB4C
:100F300011214FEA104E4EEA014E10EB0E0041EB2C
:100F40001141401841F100014FEAD00040EA4170E0
:100F50004FEAD10110EB80054FEA810444EA907416
:100F600044EB01046D1944EB0404521BA3414FF000
:100F7000000348BF0A3200D530BD401C41F10001DA
:100F800030BD000001694A1C02610878704700B555
:100F90008FB0CDE901310021059105497944CDE9B2
:100FA000031011466846FFF7E7FA0FB000BD0000D6
:100FB000E5FFFFFF2DE9F0411F46044603260168C7
:100FC000072A01F4006004DB08B116A505E016A5A8
:100FD00003E008B115A500E015A521F01000206080
:100FE000A069C01EA0610FB1401EA0612046FFF79E
:100FF0000BFA4FB1D4E9012138469047206A401CD2
:101000002062C01C206206E0206AFAE7D4E90121D0
:1010100015F8010B9047761EF8D22046FFF70AFA22
:10102000BDE8F0814E414E006E616E00494E4600B3
:10103000696E66002DE9F047814616468AB033484E
:1010400078440DC88DE80D0030487844801C03AC0E
:101050000DC884E80D0041F69B300844372190FB11
:10106000F1F290FBF1F5A5F1800501FB12041B3CA8
:1010700002D56442012000E00020DFF890A0804605
:101080000027FA44AAF1BE0A0DE0E00709D0324673
:10109000684607EB47010AEB810100F034FB8DE85D
:1010A000070064107F1C002CEFD1184F7F44AC3F29
:1010B00018E0E80714D007EB04100DF1180A90E8C7
:1010C0000E008AE80E00C068F04201D1981908901D
:1010D000324606A903A800F016FB03AB83E807001D
:1010E0006D10641C002DE4D132466946B8F1000F42
:1010F00003A802D000F0F3FA01E000F004FBC9E914
:101100000001C9F808200AB0BDE8F087A09E0000E1
:10111000007B00F08000704700487047DC7B0020B7
:101120007546FFF7F9FFAE4605006946534620F0C5
:101130000700854618B020B5FFF722F9BDE820402A
:101140004FF000064FF000074FF000084FF0000B83
:1011500021F00701AC46ACE8C009ACE8C009ACE836
:10116000C009ACE8C0098D46704710B50446AFF31E
:1011700000802046BDE81040FFF78DB84FF0013CDD
:1011800050F8042B51F8043B9A4221D1A2EB0C03F6
:10119000934313EACC1317D150F8042B51F8043BB6
:1011A0009A4215D1A2EB0C03934313EACC130BD153
:1011B00050F8042B51F8043B9A4209D1A2EB0C03DE
:1011C000934313EACC13DBD04FF00000704700BF0D
:1011D000D01A01BAB1FA81F101F0180122FA01F036
:1011E000CB40C1F12001DBB2C0B2C01A2CFA01F32E
:1011F000D11A914311EAC311E6D170475FEA400C5E
:1012000008BF91F0000F4FEA8C234FEAC12243EA56
:1012100051514FEA1C5018BF00F5F0404FEA300022
:1012200018BF41F000415FEA6C5C00F02980BCF11E
:10123000FF3F08BF40F080407047130C06BF120408
:101240004FF0100C4FF0000C130E04BF12020CF103
:10125000080C130F04BF12010CF1040C930F04BF10
:1012600092000CF1020CD30F04BF52000CF1010CE0
:1012700011464FF00002A0F11F00A0EB0C007047D8
:1012800011F0004F08BF704731F000413FF4D5AF77
:101290000B0C06BF09044FF0100C4FF0000C0B0EA6
:1012A00004BF09020CF1080C0B0F04BF09010CF17B
:1012B000040C8B0F04BF89000CF1020CCB0F04BF90
:1012C00049000CF1010CCCF12003A0EB0C0022FA38
:1012D00003F302FA0CF241EA030100F10100704746
:1012E00020F07F4C80EA030023F07F47ACEB07033C
:1012F00003F57C5300F0004003F1FF032DE9804922
:101300004FEA154B09B44FEA144325EA0B4E24EA81
:1013100003480FF2042606EB132749083E785FEADC
:10132000320203FB0667C7F5000707FB06F64FEA24
:1013300054374FEAD64606F1020607FB066CCCF19D
:10134000005C4FEA1C472CEA074C07FB06F40CFB39
:1013500006F504EB15464FEA961634BF00204FF011
:1013600000404FEAD13706FB07FC4FEA1C4C0CFB50
:101370000BF7D21B03FB0CF761EB07010CFB0EF71D
:10138000B0EB074072EB17420CFB08F734BFA2EB3F
:101390000742B2EB074261EB17414FEA0C444FEAB8
:1013A000910706FB07FC4FEA1C4C0CFB0BF7B0EB5C
:1013B000C74072EB573203FB0CF734BFA2EBC742B6
:1013C000B2EBC74261EB57310CFB0EF7B0EBC70035
:1013D00072EB57720CFB08F734BFA2EBC702B2EBFB
:1013E000C70261EB5771039F4FEA816141EA921195
:1013F00004EBCC044FEAD1374FEA826206FB07FCCC
:1014000042EA90124FEA80604FEA1C4C0CFB0BF74B
:10141000D21B03FB0CF761EB07010CFB0EF7B0EBE3
:10142000074072EB17420CFB08F734BFA2EB0742F0
:10143000B2EB074261EB17414FEA8C554FEA910737
:1014400004EB9C2406FB07FC4FEA1C4C0CFB0BF73F
:10145000B0EBC74072EB573203FB0CF734BFA2EB83
:10146000C742B2EBC74261EB57310CFB0EF7B0EB52
:10147000C70072EB57720CFB08F734BFA2EBC70230
:10148000B2EBC70261EB577115EB4C254FEA816156
:1014900041EA92114FEA82624FEAD13742EA901252
:1014A00006FB07FC44F100044FEA80604FEA1C4C45
:1014B0000CFB0BF7D21B03FB0CF761EB07010CFBDA
:1014C0000EF7B0EB074072EB17420CFB08F734BF86
:1014D000A2EB0742B2EB074261EB174115EB1C157B
:1014E0004FEA813141EA92414FEA823242EA904228
:1014F0004FEA80304FEA0C7644F1000448EA034397
:101500004EEA0B484FF0000EB2EB080C71EB0307EC
:1015100024BF624639464EEB0E0E4FF0000B00180A
:10152000524149414BEB0B0BB2EB080C71EB03073B
:101530007BF1000B24BF624639464EEB0E0E4FF096
:10154000000B0018524149414BEB0B0BB2EB080C5E
:1015500071EB03077BF1000B24BF624639464EEB6B
:101560000E0E51EA020718BF46F0010616EB0E7682
:1015700055F1000254F1000103D5BDE88901BDE831
:101580000088BDE88901BDE80048B619524141EB29
:101590000101A3F10103704780807F7E7D7C7B7A0F
:1015A0007978777676757473727171706F6E6E6D0F
:1015B0006C6C6B6A6A6968686766666564646363B5
:1015C00062616160605F5F5E5E5D5D5C5C5B5B5A3B
:1015D0005A595958585757565655555554545353A8
:1015E00052525251515050504F4F4F4E4E4D4D4D03
:1015F0004C4C4C4B4B4B4A4A4A494949484848474E
:10160000474747464646454545444444444343438B
:101610004342424242414141002B26D4770021D02F
:101620001CB54FEA370703B44FF010004FF010011C
:101630004FF000000FBCBDE810400BF1010BBBF1F7
:10164000010F08BF5FEA170722BF12F1010211F173
:1016500001014FF0004143F1000300F0004043EA74
:1016600000007047F9D35708DAE746EA064613F157
:10167000400F4FEA16461FDD13F1200FDFBF164360
:101680000A46002120335B42C8D0C3F1200746EA56
:10169000064602FA07F74FEA164646EA0706C3F17E
:1016A000200722FA03F201FA07F721FA03F14FF0BB
:1016B000000342EA0702B1E746EA020646EA0646A6
:1016C0004FEA164646EA0106BCBF46EA0646360C15
:1016D0004FF000034FF000024FF000019EE72DE9AC
:1016E000C048934630B491E8380007C831EA400C4E
:1016F00048BF34EA430C03D5FFF7F2FDFFF78CFF38
:10170000F0BCBDE800882DE9C048934630B491E8AC
:10171000380007C810F0804F08BF13F0804F03D186
:1017200000F005F8FFF778FFF0BCBDE8008820F076
:101730007F4780EA030023F07F4C07EB0C03A3F5FF
:101740007C5300F00040A3F1FE0392F0000F00F084
:10175000B38095F0000F00F077802DE901494FEA42
:1017600011404FEA144621EA004800FB06FC24EA37
:10177000064708FB06F607FB08F800FB07F718EB1F
:1017800006484CEB164C4FEA124B18EB07484FEA51
:1017900015464CEB174022EA0B4E0BFB06FC25EAE4
:1017A00006470EFB06F607FB0EFE0BFB07F71EEBCC
:1017B000064E4CEB164C4FF000061EEB074E4CEB62
:1017C000174B18EB0B0840F1000018EB0E0B58EB11
:1017D000000840F100008F1A4FF000013CBFC943E0
:1017E000661B14BFB5EB040C00213CBFC943F61BBC
:1017F0004FEA17444EEA8E0E27EA04454FEA1C478B
:1018000004FB07622CEA074C05FB07F70CFB05F607
:1018100004FB0CFC16EB074642EB174216EB0C469A
:1018200042EB1C421BEB060658EB0202414146EA22
:101830009E0601D5BDE80189B619524141EB01016F
:10184000A3F10103BDE801894FEA14454FEA1147AE
:1018500024EA054621EA074C05FB07F406FB07F7D7
:101860000CFB06F105FB0CFC11EB074144EB1744A4
:101870004FEA124711EB0C4144EB1C4422EA074C9F
:1018800005FB07F206FB07F70CFB06F605FB0CFC55
:1018900016EB074642EB174216EB0C4642EB1C4593
:1018A0006A1854F1000148BF7047B619524141EB24
:1018B0000101A3F10103704795F0000F37D04FEA03
:1018C00011424FEA144721EA024624EA074C02FB80
:1018D00007F106FB07F70CFB06F402FB0CFC14EB0C
:1018E000074441EB17414FEA154714EB0C4441EB19
:1018F0001C4125EA074C02FB07F506FB07F70CFB2A
:1019000006F602FB0CFC16EB074645EB174516EBFB
:101910000C4645EB1C42121951F1000148BF7047BB
:10192000B619524141EB0101A3F1010370474FEA9F
:1019300014454FEA114724EA054621EA074C05FB06
:1019400007F106FB07F70CFB06F24FF0000605FB5C
:101950000CFC12EB074241EB174112EB0C4251EB2E
:101960001C4148BF7047921841EB0101A3F10103EC
:10197000704700F09BFD4FF4FA740021022000F044
:1019800081FD204606F0B0FC0121022000F07AFD26
:10199000204606F0A9FCF0E7FEE7000038B500207D
:1019A00000906B4601227521682004F065FA9DF8CD
:1019B000001031A0FEF71CFD9DF8000068280CD037
:1019C000BFF34F8F37480168374A01F4E061114394
:1019D0000160BFF34F8F00BFFDE704F011FC00284A
:1019E00049D1782005F0E0F810B930A0FEF700FDED
:1019F000782004F02FFB10B935A0FEF7F9FC322057
:101A000005F096F810B93CA0FEF7F2FC03F01CFCC0
:101A100010B943A0FEF7ECFC4E48044604F0CAFAA5
:101A20000546E01C04F0C6FA45EAC005A01D04F016
:101A3000C1FA45EA801080B203F0BAFD10B946A0A1
:101A4000FEF7D6FC40F2731003F0D6FA10B94CA0A2
:101A5000FEF7CEFC322003F013FD10B952A0FEF7C2
:101A6000C7FC05F08FFE012004F088FF002802D19A
:101A700056A0FEF7BDFC38BD6D70755F7365745F71
:101A800073656E736F7220636F6D706C6574652023
:101A90002E2E2E2E2E2E206964203D20255820200B
:101AA0000D0A00000CED00E00400FA056D70755F92
:101AB0007365745F73656E736F7220636F6D706CA6
:101AC000657465202E2E2E2E2E2E0D0A000000008D
:101AD0006D70755F636F6E6669677572655F666965
:101AE000666F20636F6D706C657465202E2E2E2ED0
:101AF0002E2E0D0A000000006D70755F7365745F17
:101B000073616D706C655F7261746520636F6D7079
:101B10006C657465202E2E2E2E2E2E0D0A000000D0
:101B2000646D705F6C6F61645F6D6F74696F6E5F21
:101B30006472697665725F6669726D77617265203D
:101B4000636F6D706C657465202E2E2E2E2E2E0DFB
:101B50000A00000064010020646D705F7365745FAB
:101B60006F7269656E746174696F6E20636F6D70FA
:101B70006C657465202E2E2E2E2E2E0D0A00000070
:101B8000646D705F656E61626C655F6665617475DA
:101B9000726520636F6D706C657465202E2E2E2E1D
:101BA0002E2E0D0A00000000646D705F7365745F77
:101BB0006669666F5F7261746520636F6D706C65D6
:101BC0007465202E2E2E2E2E2E0D0A006D70755F40
:101BD0007365745F646D705F737461746520636FA7
:101BE0006D706C657465202E2E2E2E2E2E0D0A0023
:101BF0007047052006F078FBFBE7F0B500220127CF
:101C00004FF0030C0B6807FA02F52B40AB422CD1C6
:101C1000066853000CFA03F4A64306600E79D0F868
:101C200000E09E4046EA0E0606600E79012E01D0C5
:101C3000022E12D18668A64386604E79D0F808E05D
:101C40009E4046EA0E0686604668AE43466045689A
:101C50008E799640B6B235434560C568A543C560E8
:101C6000CC799C40C3681C43C460521C102AC9D361
:101C7000F0BD4B07DB0E9A40C90810B500EB8100A0
:101C8000016A0F249C40A1430162016A1143016271
:101C900010BD41837047018370474FF4967400F084
:101CA00017F8204606F020FBF9E700001CB5074CAA
:101CB0004FF0FF352A466946E06806F0E5FE012848
:101CC000F8D1684603F0FCF8F4E700005402002065
:101CD0002DE9F0473B4C8CB0E06A08F0DBF8074692
:101CE0008846A06908F0D6F881468A46206A08F03E
:101CF000D1F805460E46E06908F0CCF841EC100B2F
:101D000004F18000816F406FCDE90878CDE90A01C8
:101D1000B4F90C10B4F90E00B4F90A20CDE904218D
:101D200006908DE8600653EC102B2748FEF760FB09
:101D300094ED061AD4ED080A94ED070A002002F08B
:101D4000D5FF04F5807090ED050AF8EEC00A9FED0E
:101D50001F0A80EE801ADFED1E0A21EE201ABCEE6B
:101D6000C11A11EE101A90ED041ACBB2F8EEC11A96
:101D700081EE801A21EE201ABCEEC11A11EE101A63
:101D800090ED031ACAB2F8EEC11A81EE801A21EE64
:101D9000201ABCEEC11A11EE101A90ED021AC9B247
:101DA000B8EEC11AC1EE001A21EEA00ABCEEC00ABC
:101DB00010EE100AC0B206F041F90CB0BDE8F047D1
:101DC00005F06ABD18000020FCAE000800007A444F
:101DD00000007E4310B500F005F8BDE8104005F0A6
:101DE000C3BE000010B514A0FEF702FB1FA0FEF753
:101DF000FFFA2BA0FEF7FCFA36A0FEF7F9FA42A094
:101E0000FEF7F6FA4DA0FEF7F3FA59A0FEF7F0FA46
:101E100064A0FEF7EDFA70A0FEF7EAFA7BA0FEF7E9
:101E2000E7FA87A0FEF7E4FA92A0FEF7E1FABDE830
:101E3000104098A0FEF7DCBA202A2A2A2A2A2A2A49
:101E40002A2A2020202A2A2A2A2A2A2A2A2A202024
:101E50002A2020202020202020202A2A2020202064
:101E60002020202A2A202020200D0A00202A20209D
:101E70002020202020202020202A20202020202058
:101E8000202020202A202020202020202020202A3E
:101E90002A20202020202A2A20202020200D0A006D
:101EA000202A2020205E5E5F5E5E2020202A2020E7
:101EB00020202020202020202A2020202020202018
:101EC000202020202A2A2020202A2A2020202020EA
:101ED000200D0A00202A2020202020202020202041
:101EE000202A2A2A2A2A2A2A2A2A20202A2020208E
:101EF0002020202020202020202A2A202A2A2020BA
:101F000020202020200D0A00202A20202020202010
:101F100020202020202A20202020202020202020B7
:101F20002A202020202020202020202020202A2A93
:101F30002A20202020202020200D0A00202A2020D6
:101F40002020202A2A2A2A20202A2020202020205F
:101F5000202020202A202020202020202020202077
:101F600020202A2A2A20202020202020200D0A009C
:101F7000202A20202020202020202A20202A202043
:101F800020202020202020202A2020202020202047
:101F90002020202020202A2A2A2020202020202023
:101FA000200D0A00202A2A2A2A2A2A2A2A2A2A2016
:101FB000202A202020202020202020202A2A2A2AEF
:101FC0002A2A2A2A2A20202020202A2A2A202020C1
:101FD00020202020200D0A00202D2D2D2D2D2D2DEF
:101FE0002D2D2D2D2D2D2D2D2D2D2D2D2D2D2D2D21
:101FF0002D2D2D2D2D2D2D2D2D2D2D2D2D2D2D2D11
:102000002D2D2D2D2D2D2D2D2D0D0A0020405374FD
:10201000617953756E6E7920666C792E7368696C80
:10202000696768742E636E202020202020202020E5
:10203000202020202020202020202020200D0A00E9
:102040002047666C792056657273696F6E3A204737
:10205000666C795F56345F4F535F56322E302020C6
:102060002020202020202020202020202020202070
:102070000D0A0000204275696C642044617465207B
:10208000203A20323032342E342E31342020202099
:102090000D0A0000204672656552544F5320566564
:1020A0007273696F6E20203A2056323032323132EC
:1020B0002E30310D0A000000FEE730B50D46044613
:1020C00000F0D0F8204600F09FF800F013F9284601
:1020D00000F09AF800F00EF900F0C4F8641CE0B2C9
:1020E00000F092F800F006F9002000F05FF80346D7
:1020F00000F0E0F8184630BD0C4A00B50023C2F8E5
:1021000098320B48016821F440410160016841F4B4
:1021100080410160C2F89C3202F5267200F00AF894
:102120000120106000F006F8136000BD00804042FE
:1021300000040240C820401EFDD270471CB501219A
:10214000022000F093FCC020009001208DF80400D4
:102150000220064C8DF8050069462046FFF74DFD2C
:10216000C0212046FFF797FD1CBD0000000402407F
:1021700010B50C4A0024C2F898420B48016821F4BB
:1021800040410160016841F4804101600123C2F8CF
:102190009C3202F52672FFF7CDFF1360FFF7CAFFEE
:1021A000146010BD0080404200040240F0B50746B4
:1021B00013480024016821F4404101600168016076
:1021C000104B224625460126C3F89852FFF7B2FF6E
:1021D000C3F898626006040ED3F81C0208B1641CB0
:1021E000E4B2FFF7A7FF521CD2B2082AECD31FB10A
:1021F000FFF782FF2046F0BDFFF7BAFFFAE70000C5
:10220000000402400080404270B503461348016854
:1022100021F440410160016841F480410160104DAA
:102220000026C5F8986232460124180602D5C5F882
:102230009C4201E0C5F89C625806030EFFF77AFF46
:10224000C5F89842FFF776FFC5F89862FFF772FF6E
:10225000521CD2B2082AE8D370BD0000000402402C
:1022600000804042114800B5016821F440410160FE
:10227000016841F4804101600D4A0120C2F89C02CE
:10228000D2F81C1249B1C2F89802FFF753FF00239D
:10229000C2F89C32D2F81C0208B1002000BDFFF742
:1022A00049FFC2F89832012000BD0000000402403E
:1022B000008040420D4800B5016821F440410160B2
:1022C000016841F480410160094A0020C2F8980287
:1022D000C2F89C0202F52672FFF72CFF0120106065
:1022E00050605DF804EBFFF725BF000000040240DA
:1022F00000804042114810B50168002221F440419D
:102300000160016801600E4B0124C3F89C42FFF795
:1023100011FFC3F8984207E0521CD2B2642A03D9D5
:10232000FFF7C8FF002010BDFFF704FFD3F81C0221
:102330000028F1D1C3F89802012010BD000402402A
:102340000080404210B51446FFF7B7FE2070012010
:1023500010BD2DE9F0411D4616468846074600246B
:10236000FFF780FF3846FFF74FFFFFF7C3FF4046F8
:10237000FFF74AFFFFF7BEFFFFF774FF7F1CF8B2BD
:10238000FFF742FFFFF7B6FF771E09E0BC4201D01E
:10239000012000E00020FFF709FF2855641CE4B28B
:1023A000B442F3D3FFF786FF2046BDE8F081F8B5CD
:1023B00015461C460E4607466A46FFF7C3FF012036
:1023C0009DF80010A8400CB1014300E08143CAB25F
:1023D0008DF800203146384600F02BF8F8BD2DE985
:1023E000F84114461E460D4680466A46079FFFF791
:1023F000A9FF00281BD0621CFF2000FA02F1C4F1E3
:1024000008023244521ED0400143C6F10800874002
:10241000FAB2C4F10700C2409DF800000840104322
:102420008DF80000C2B22946404600F002F8BDE82F
:10243000F88107B502AB012200F001F80EBD2DE9CD
:10244000F0411D461646884607460024FFF70AFF5E
:102450003846FFF7D9FEFFF74DFF4046FFF7D4FEA1
:10246000FFF748FF06E0285DFFF7CEFEFFF742FFCB
:10247000641CE4B2B442F6D3FFF71CFF0120BDE8B0
:10248000F0810000084A012808D002280BD1400240
:1024900001290146104604D0FFF7FDBB4FF4006050
:1024A000F6E7FFF7F6BB7047000802401CB50121B4
:1024B000042000F0DBFA4FF44060009001208DF81A
:1024C000040002208DF8050000218DF80610084C4C
:1024D0008DF8070069462046FFF78FFBE114204680
:1024E000FFF7D9FB21152046FFF7D5FB1CBD0000E7
:1024F0000008024010B5022000F011F8032000F09F
:1025000020F8002000F014F8002000F02FF8002040
:1025100000F026F8BDE81040002000F01BB808B518
:102520000323009002226B21D020FFF758FF08BD43
:1025300008B50223009004221C21D020FFF74FFF92
:1025400008BD08B50223009004221B21D020FFF70C
:1025500046FF08BD034601223721D020FFF727BFE1
:10256000034605226A21D020FFF721BF0346062239
:102570006B21D020FFF71BBF7CB514460D460646E5
:102580006B4606224321682003F076FC10F0FF0022
:102590000BD1BDF8001049BA3180BDF8021049BA1C
:1025A0002980BDF8041049BA21807CBD70B5014670
:1025B000772003F0CDFC0A2005F096FE002177205D
:1025C00003F0C6FCFFF74EFEEF20FFF71DFEFFF7FE
:1025D00091FE80B10120FFF7E9FD04460120FFF7DD
:1025E000E5FD05460020FFF7E1FD0146200440EA35
:1025F0000520084370BDFFF75DFE02A0FDF7F8FE61
:10260000012070BD455252204D5335363131206E78
:102610006F74206861766520612061636B200D0A0C
:102620000000000070B52DED068BFFF7BFFF664C74
:10263000664E0546A0603089D4ED04AA00EE100A6B
:10264000B8EE400A20EE2A0A10EE100A07F022FC2B
:102650009FED5F1B53EC112B07F026F941EC180B93
:10266000B088000407F0D1F853EC182B06F0A2FE56
:1026700041EC190B84ED0A9BF08800EE100AB8EECD
:10268000400A20EE2A0A10EE100A07F003FC9FED24
:10269000521B53EC112B07F007F941EC180B708813
:1026A000C00307F0B2F853EC182B06F083FE41ECA0
:1026B000180B4B4984ED0C8B94ED01AA1AEE100A0D
:1026C000884240DA2AEEAA0ADFED460A20EE200A06
:1026D00084ED050A9FED440AF0EE040AB7EE041AF1
:1026E0003AEE400A1AEE100A404920EE000A8842EB
:1026F00084ED060A60EE200A20EE010AC4ED070A06
:1027000084ED080A27D9B1EE0C1A9FED390A3AEE8A
:10271000000A20EE000A84ED060A40EE010A10EEDF
:10272000100AC4ED070A07F0B5FB9FED321B53EC0E
:10273000112B07F0B9F853EC182B06F03BFE06F00E
:1027400007FE206207E09FED2D0A84ED050A84ED67
:10275000070A84ED080A94ED050A3AEE400A84ED72
:10276000010AE06907F096FB53EC192B07F0D0F94A
:1027700041EC190B84ED0A9B206A07F08BFB53ECAC
:10278000182B07F0C5F941EC180B284684ED0C8B8B
:1027900007F03BF853EC182B07F086F89FED181B59
:1027A00053EC112B07F080F853EC192B07F088FA43
:1027B0009FED151B53EC112B07F076F806F0C8FDC2
:1027C0002060BDEC068B70BDA00100209C020020A3
:1027D000000000000000803F000000000000703F8B
:1027E0000000FA44000000300000FA440080BBC43E
:1027F0000080BB4400000000000016400000000004
:10280000000000000000A03E000000000000003FAB
:1028100010B5FFF7CBFE0E490E4A9FED0F1AC860A8
:102820005389A0EB032000EE100AB8EE400A81EDB8
:10283000040A908900EE900AF8EE600A60EE800AC1
:102840009FED060A00EE810A81ED010A10BD00002D
:10285000A00100209C020020000000340000FA4487
:1028600010B500F00AF8642005F03EFD00F00AF80B
:10287000BDE81040642005F037BD1E21772003F02D
:1028800067BB00007FB50024144DA02606EB440072
:10289000C1B203AB0222EE20FFF75BFD9DF80D20D5
:1028A0009DF80C100EA0FDF7A3FDBDF80C0040BA7A
:1028B00025F81400641CE4B2062CE7D913A0FDF738
:1028C00097FD2889AA8969898DE80700EB88AA887D
:1028D000698813A0FDF78CFD7FBD00009C020020DD
:1028E0000A20546865204D5335363131303142412C
:1028F0002069732072656164696E672050524F4D84
:10290000203A202025642025640D0A000D0A20208D
:1029100050524F4D20202056616C203A200D0A0065
:102920000D0A4331203D2025640D0A4332203D200D
:1029300025640D0A4333203D2025640D0A433420CD
:102940003D2025640D0A4335203D2025640D0A43B2
:1029500036203D2025640D0A000000000B4C0C4D74
:102960004FF0FF363146E06806F02AF9012809D118
:1029700003F004F8002385ED000A1A461946E068C2
:1029800005F062FF642005F0AFFCEBE77C0200205D
:1029900044000020FEE700000E4C4FF0FF352946B2
:1029A000E06806F00DF901280FD10B4A0B490C48DD
:1029B00000F0C8F80B4A0C490C48FFF7DDFD002376
:1029C0001A461946E06805F03FFF082005F08CFC28
:1029D000E5E700007C0200203000002038000020E5
:1029E00034000020260000202200002024000020C7
:1029F0007047000030B50F23C27801780125FAB185
:102A0000144A126801F1E02102F4E062C2F5E062CA
:102A1000C2F30722C2F10404D3404278A240847872
:102A20001C401443220181F80024007800F01F01AB
:102A30008D404009800000F1E020C0F8005130BD19
:102A400001F01F0085404809800000F1E020C0F837
:102A5000805130BD0CED00E0024908430249086096
:102A6000704700000000FA050CED00E0044A002960
:102A7000116801D0014300E08143116070470000FC
:102A800030380240044A0029116801D0014300E0B7
:102A9000814311607047000040380240044A002919
:102AA000116801D0014300E08143116070470000CC
:102AB0004438024070B5204B1968204C11F00C01CD
:102AC00004D06610042903D0082903D004601BE059
:102AD000066019E0184A121F1168C1F38055116889
:102AE00001F03F0115B1B6FBF1F101E0B4FBF1F1EA
:102AF00014681268C4F388146143C2F30142521C83
:102B00005200B1FBF2F1016019680F2202EA1111C3
:102B10000B4A545C0168E14041601C68072505EAE6
:102B20009424145D21FA04F484601B6805EA53338D
:102B3000D25CD140C16070BD083802400024F4006E
:102B400030010020F0B507462DED0A8B89B007A8AB
:102B50000E46154606AB5C4CCDE9004004F11A0167
:102B600002AA881F02F07AFB2088C0057ED59DED61
:102B7000020AB8EEC00ADFED551AB8EE009AB0EEC0
:102B800000AA20EE210A84ED010ADDED030A20EE01
:102B90000A0AF8EEE00A20EEA11A84ED021ADDED31
:102BA000040A21EE091AF8EEE00A60EEA10AC4ED6B
:102BB000030A9DED052AB8EEC22A62EE211AC4ED81
:102BC000041A21EE211A00EE201A11EE100A07F065
:102BD00061F941EC100B00F0BBFC9FED3D8B51EC1B
:102BE000100B53EC182B06F05FFE06F0B1FB3860BB
:102BF000D4ED02AA2AEE890A60EE2A0A94ED030AAD
:102C000020EE0ABA4BEE400AB7EE000A30EE800A18
:102C100010EE100A07F03EF994ED040AD4ED010A13
:102C200041EC190B2BEE000A60EE8A0A00EEAA0AAC
:102C300010EE100A07F02EF941EC100BB0EE491A15
:102C4000F0EE691A00F0A0FF53EC182B51EC100BBA
:102C500006F02AFE06F07CFB3060D4ED01AA94ED6C
:102C600002BA2AEEAA0A0BEE0B0A00E028E094ED65
:102C700003CAD4ED04BA0CEE4C0A0BEEEB0A10EECC
:102C8000100A07F007F92BEE0C0A41EC190B0AEEBB
:102C9000AB0A20EE0A0A10EE100A07F0FBF841EC2E
:102CA000100BB0EE491AF0EE691A00F06DFF53EC0C
:102CB000182B51EC100B06F0F7FD06F049FB2860CD
:102CC00009B0BDEC0A8BF0BD44010020000080304B
:102CD0006666666666A64C400CB5002226490092E0
:102CE0000192086840F4803008604FF4A0430868FF
:102CF00000F4003001900098401C0090019810B939
:102D000000989842F3D10868800332D501200190E1
:102D100019484030026842F0805202601748026849
:102D200042F44042026014480830026802600268BF
:102D30000260026842F480520260031F104A1A6067
:102D40000A6842F080720A600A689201FCD50D4A56
:102D500040F202711160016821F003010160016815
:102D600041F0020101600168C1F381010229FAD139
:102D70000CBD01920CBD0000003802400070004004
:102D8000082A4007003C02407CB5012005F0C2FC47
:102D90001349C860FFF7D2F9FFF762FD0A2001F07E
:102DA000F7FFFFF7A7FBFEF7F9FD01240C486502CA
:102DB000CDE9004000232A460AA10D4805F0F2FFA4
:102DC00007480023001DCDE900402A4609A10C4810
:102DD00005F0E8FFBDE87C40002005F0ABBA00003C
:102DE0007C0200204D7075363035305461736B00B5
:102DF000992900084D53353631315461736B000009
:102E00005D2900087CB500220121322005F094FCE8
:102E1000164C00220121E060322005F08DFC20617B
:102E200000220121322005F087FC60612046012448
:102E3000CDE90040650200232A460DA1104805F0A7
:102E4000B1FF0A480023001DCDE900402A460DA12C
:102E5000104805F0A7FF054800230830CDE90040E1
:102E60002A460DA1104805F09DFF7CBD640200209C
:102E70005573617274315265635461736B00000065
:102E8000A9330008557361727432526563546173DB
:102E90006B0000003D340008557361727436526552
:102EA000635461736B000000F534000810B55020C6
:102EB00080F31188BFF34F8FBFF36F8F05F0B4FF1E
:102EC00018B104494FF080500860002080F3118849
:102ED00010BD000004ED00E0124810B5016841F497
:102EE000700101601048016841F0010101600E4A63
:102EF00000210832116002680C4B1A400260031D69
:102F00000B4A1A60026822F48022026006480C30E4
:102F10000160FFF7E1FE03494FF00060803908606F
:102F200010BD000088ED00E000380240FFFFF6FE13
:102F300010300024704700001CB5104C40F22551A1
:102F4000204600F099F9002817D0204600F022FA18
:102F50008DF8040000200346009009486A4601A944
:102F6000406905F023FD0098002806D0054920049B
:102F70000860BFF34F8FBFF36F8F1CBD001001407F
:102F80006402002004ED00E0F0B50646012187B0A0
:102F90000846FFF76BFD01211020FFF77FFD254D4F
:102FA000072209212846FEF764FE07220A21284647
:102FB000FEF75FFE02218DF814108DF815104FF406
:102FC000C060002404908DF8164001278DF817701A
:102FD00004A92846FEF711FEADF80440ADF80640FE
:102FE000ADF80840ADF80C400C20134CADF80A00C9
:102FF00000966946204600F077F90121204600F04E
:103000002AF94021204600F023F9012240F22551FF
:10301000204600F050F925208DF818000F208DF87B
:1030200019008DF81A008DF81B7006A8FFF7E2FC56
:1030300007B0F0BD00000240001001401CB5104C6C
:1030400040F22551204600F017F9002817D02046FD
:1030500000F0A0F98DF80400002003460090094814
:103060006A4601A9006905F0A1FC0098002806D075
:103070000549A0040860BFF34F8FBFF36F8F1CBDDD
:10308000004400406402002004ED00E02DE9F0411E
:103090008046012188B00846FFF7E8FC012148047A
:1030A000FFF7F0FC254E072202213046FEF7E1FD36
:1030B000072203213046FEF7DCFD02218DF81410B3
:1030C0008DF8151000240C258DF816400127049565
:1030D0008DF8177004A93046FEF78FFDADF8044057
:1030E000ADF80640ADF80840ADF80C40144CCDF8F2
:1030F0000080ADF80A506946204600F0F5F801213D
:10310000204600F0A8F84021204600F0A1F8012256
:1031100040F22551204600F0CEF826208DF8180008
:1031200006208DF8190003208DF81A008DF81B7009
:1031300006A8FFF75FFC08B0BDE8F0810000024080
:10314000004400401CB5114C40F22551204600F0CF
:1031500093F8002818D0204600F01CF98DF80400E0
:103160000020034600900A486A4601A9406905F01C
:103170001DFC0098002807D006494FF080500860D9
:10318000BFF34F8FBFF36F8F1CBD000000140140D1
:103190006402002004ED00E0F0B50746012187B08D
:1031A0000846FFF763FC01212020FFF777FC264E3D
:1031B00008220B213046FEF75CFD08220C21304628
:1031C000FEF757FD4FF4C050049002208DF8140014
:1031D0008DF8150000248DF8164001258DF8175044
:1031E00004A93046FEF709FDADF80440ADF80640ED
:1031F000ADF80840ADF80C400C20144CADF80A00B6
:1032000000976946204600F06FF80121204600F043
:1032100022F84021204600F01BF8012240F22551FF
:10322000204600F048F847208DF8180006208DF859
:10323000190003208DF81A008DF81B5006A8FFF71F
:10324000D9FB07B0F0BD00000000024000140140AF
:10325000C943018070470029818902D041F400519F
:1032600001E021F40051818170470246002012885C
:103270000A4200D00120704770B501F01F050126F9
:103280000024C1F3421306FA05F2012B0FD0022BE2
:103290000FD0838A4FEA11210088134206FA01F603
:1032A00000EA060001D000B10124204670BD8389E8
:1032B000F0E7038AEEE710B5C1F3421301F01F04F3
:1032C0000121A140012B07D0022B07D01430002A86
:1032D000026805D00A4304E00C30F8E71030F6E746
:1032E0008A43026010BD00007FB50446008A0D4687
:1032F000C98820F4405001432182A08941F20C6129
:103300008843A9882A8911436A8902431143A1810C
:10331000A08A20F44071A8890843A0826846FFF77C
:10332000C9FB1A48844202D01948844201D103984B
:1033300000E00298A189090400EBC00101EB001034
:10334000296801D5490000E08900B0FBF1F0642252
:10335000B0FBF2F109010B096FF018056B4300EBAC
:103360008300A3891D044FF0320306D503EBC00090
:10337000B0FBF2F000F0070005E003EB0010B0FB3B
:10338000F2F000F00F00084320817FBD00100140E3
:10339000001401408088C0F308007047C1F30801A1
:1033A00081807047FEE700000EB54FF0FF341B4EE2
:1033B00025462A4602A9F06805F066FB0128F8D1E7
:1033C0009DF80800FF281BD0611CF2D00DF8040006
:1033D000641C052CEDD12C4600210120FFF752F88A
:1033E0000F48002301226946006805F02DFA0D49B7
:1033F0004FF080500860BFF34F8FBFF36F8FD8E757
:10340000641C4FF0000407D007A0FCF7F1FF002177
:103410000120FFF737F8CCE70121F9E7640200202B
:103420006002002004ED00E0426173696320526590
:1034300063204572722F722F6E00000008B50024C1
:10344000294E671E3A466946306905F01DFB012882
:10345000F8D1A4B1012C18D0022C1CD0032C20D000
:10346000042C24D0052C28D0062C2CD0072C2CD0B2
:10347000082CE7D19DF80000AA282CD032E09DF856
:103480000000FE28DED10124DCE79DF800000428BE
:10349000D8D10224D6E79DF80000032460F3070585
:1034A000D0E79DF80000042460F30F25CAE79DF8DB
:1034B0000000052460F31745C4E79DF800000624CA
:1034C00060F31F65BEE70724BCE79DF800001E28D7
:1034D000B8D90824B6E7054928B208600449280C81
:1034E00000B208600024ADE7640200200C01002057
:1034F0001001002008B5084C4FF0FF352A466946F8
:10350000606905F0C1FA0128F8D19DF8001003A008
:10351000FCF76EFFF2E70000640200202563000064
:1035200003B401984100009850EAC12018BF04205C
:103530004A0D18BF40F0010040F2FF72B2EB515F3C
:1035400008BF40F00200012808BF052002B0704704
:1035500070B5C1482DED020B2DED0E8B82B0119D83
:1035600025F000449FEDBEDB9FEDBFEB84423EDBC8
:10357000A4F140511098A1F17F6108430FD0BC48DD
:10358000844202DC28D1109830B39DED100B02B0BC
:10359000BDEC0E8B02B0BDE8704001F0A9BA9DED04
:1035A000100B53EC1D2B51EC100B06F07DF99DED2B
:1035B000100B41EC180B53EC1E2B51EC100B06F0CA
:1035C00073F953EC182B05F0F5FE41EC100B02B02B
:1035D000BDEC0E8B02B070BD0120FDF7BFF902B04B
:1035E000BDEC0E8B02B0BDE8704001F095BAA14869
:1035F0009FEDA18B844256DA9DED100BB4F1795FFB
:103600000ADA51EC100BFFF78BFF042808BF01F01A
:10361000A3FA9DED100BDAE753EC102B51EC100BD5
:1036200006F042F941EC190B95480621B0EE490A23
:10363000F0EE690A784401F0C7F953EC192B51EC0C
:10364000100B06F031F941EC1A0B8E48B0EE490A26
:10365000F0EE690A0421784401F0B6F953EC192B15
:1036600051EC100B06F020F953EC182B05F0A2FEDC
:1036700041EC100B51EC1A0B53EC102B05F056FFDC
:10368000CDE900019DED000B53EC102B9DED100BCF
:1036900051EC100B06F008F99DED101B53EC112BAB
:1036A00005F088FED2E09DED100B51EC100B02F0FE
:1036B0004CF953EC182B06F02BFA9FED730BCDE968
:1036C000000153EC102B9DED000B51EC100B06F09C
:1036D000EBF841EC190B6E480621B0EE490AF0EE0A
:1036E000690A784401F070F953EC192B51EC100B76
:1036F00006F0DAF841EC1B0B6648B0EE490AF0EE32
:10370000690A0421784401F05FF953EC192B51EC5C
:10371000100B06F0C9F853EC182B05F04BFE41ECEA
:103720001C0B51EC190B04F0D7FB41EC180B5A4859
:103730009FED5BABA04222DC53EC1C2B51EC1B0B2E
:1037400005F0F4FECDE900019DED000B51EC180BE6
:1037500053EC102B06F0A8F853EC182B05F02AFEBA
:1037600053EC1A2B06F0A0F853EC1D2B06F0A8FA28
:1037700053EC1E2B06F0CCF941EC100B5FE08DED05
:10378000008B002000909DED000B51EC180B53ECCA
:10379000102B05F00FFE9DED000B41EC1E0B53ECC2
:1037A000102B51EC100B06F07FF853EC192B06F0A0
:1037B000AFF953EC1E2B05F0B9FE41EC190B53EC9D
:1037C0001C2B51EC1B0B05F0B1FE41EC1B0B53EC19
:1037D0001A2B51EC190B06F067F853EC1D2B06F071
:1037E00097F941EC190B53EC1A2B51EC180B06F01E
:1037F0005BF853EC1B2B06F057F853EC192B06F033
:103800005FFA9DED000B41EC180B53EC1A2B51ECB9
:10381000100B06F049F89FED249B53EC192B06F092
:1038200077F941EC100B51EC180B53EC102B06F010
:1038300047FA53EC192B06F06BF941EC100B002DF5
:103840003FF7C5AE51EC100B05F076FD41EC100BC7
:10385000BDE60000000000000000F03F0000000096
:10386000075C143326A6913C182D4454FB21F93FE4
:103870000000F07F0000E03F000000000000F03F8B
:10388000B8760000C6760000000000000000E03FAF
:103890000A760000187600003333EF3F0000000086
:1038A0000000000000000040182D4454FB21E93FB7
:1038B00070B59B482DED020B2DED068B079D25F075
:1038C0000044A04218DC9748844202DC0AD10698E2
:1038D00040B19DED060BBDEC068B02B0BDE870401B
:1038E00001F006B9002DCCBF9FED8F0B9FED900B23
:1038F000BDEC068B02B070BD8F48A04215DD8F482D
:10390000A042D8BF4FF0FF3458DD9DED060B51ECBF
:10391000100BFFF705FE042808BF01F01DF99DED0F
:10392000060BBDEC068B02B070BD9DED060B51EC95
:10393000100B02F00AF8CDE9060181489FED828B59
:10394000A0423CDD8248A0421FDD00249FED82ABF7
:103950009DED060B53EC1A2B51EC100B05F02AFDD4
:103960009DED060B41EC190B53EC1A2B51EC100B8F
:1039700005F09AFF53EC182B06F0A2F953EC192B23
:1039800005F0D4FDCDE9060149E09DED060B0124CB
:1039900053EC182B51EC100B05F00CFD9DED060BB4
:1039A00041EC190B53EC182B51EC100B06F088F975
:1039B00053EC192B05F0BAFDCDE906012FE068485C
:1039C000A0421FDD02249FED689B9DED060B53EC8A
:1039D000192B51EC100B05F067FF53EC182B05F079
:1039E000E9FC9DED060B41EC180B53EC192B51EC47
:1039F000100B06F065F953EC182B05F097FDCDE997
:103A000006010CE09DED060B032453EC102B9FEDFB
:103A1000580B51EC100B05F089FDCDE906019DED29
:103A2000060B53EC102B51EC100B05F03DFF41EC55
:103A3000180B53EC182B05F037FF41EC190B4E48CF
:103A40000621B0EE490AF0EE690A784400F0BCFFA6
:103A500053EC182B51EC100B05F026FF41EC180B22
:103A60004648B0EE490AF0EE690A0521784400F0B4
:103A7000ABFF53EC192B51EC100B05F015FF41EC8B
:103A8000100B51EC180B53EC102B002C0EDA05F038
:103A900091FC9DED061B53EC112B05F005FF9DEDF0
:103AA000061B53EC112B06F033F835E005F082FCD1
:103AB0009DED061B53EC112B05F0F6FE41EC100BAF
:103AC0002F48784400EBC40090ED001B51EC100B24
:103AD00053EC112B06F0F4F89DED061B53EC112B63
:103AE00006F0EEF841EC100B2648784400EBC400D9
:103AF00090ED001B51EC100B53EC112B06F008F865
:103B000041EC100B002DA2BFBDEC068B02B070BDC6
:103B100051EC100B05F010FC41EC100B01E700001C
:103B2000000010440000F07F182D4454FB21F93FA1
:103B3000182D4454FB21F9BF0000DC3F0000203E5B
:103B40000000F33F00000000000000000000F03F14
:103B50000000E63F00000000000000000000004000
:103B60000080034000000000000000000000F83F5B
:103B7000000000000000F0BFE27300009873000036
:103B800022730000DA72000070B56B4E2DED040B4D
:103B90002DED028B82B0DDF81CC0DDE905235C420F
:103BA0002CF000411C4341EAD474049D22F00040F3
:103BB000B44205D86C422C4340EAD474B4420BD9C9
:103BC0009DED061B9DED040B02B0BDEC028B04B015
:103BD000BDE8704000F096BFACF14054A4F17F64A2
:103BE0001C430BD0022404EAAC7444EAD2740543AB
:103BF0009FED538B9FED542B07D015E09DED040BEB
:103C000051EC100B01F008F842E0002C11BF012C20
:103C10009DED040B02B0BDEC028B04BF04B070BD7F
:103C2000022C38D0032C3BD00B439FED491B9FED5A
:103C30004A0B0AD0B14218D1B04209D121F08041DB
:103C400020F08040079105900FE0002A15DA10E07F
:103C5000434B7B44002C08BF93ED000B0DD0012C8F
:103C600010D0022C17D0032C1AD0B0421DD1002A3C
:103C700003DAB0EE410AF0EE610A02B0BDEC028B4D
:103C800004B070BD93ED000B51EC100B05F054FB2C
:103C900041EC100BF1E7B0EE480AF0EE680AECE7F1
:103CA000B0EE420AF0EE620AE7E7401A00153C283F
:103CB000C8BF8DED000B19DCBCF1000FBEBF10F1C9
:103CC0003C0F9FED290B8DED000B0FDB9DED060BDF
:103CD00053EC102B9DED040B51EC100B05F026FC62
:103CE00001F033FE00F098FFCDE90001002C08BF81
:103CF0009DED000BC1D0012C10D0022C9FED1C0BB0
:103D000053EC102B9DED000B51EC100B0DD005F07A
:103D1000D7FF53EC182B05F0D3FFB9E7019880F0DB
:103D2000004001909DED000BA7E705F0C9FF53ECA3
:103D3000182B05F0EDFEABE70000F07F000000005F
:103D4000182D4454FB210940182D4454FB2109C06F
:103D5000182D4454FB21F9BF182D4454FB21F93F81
:103D60000A720000000000000000000000000000D7
:103D7000075C143326A6A13C2DE9F04D2DED040B74
:103D80002DED0E8B96B0DDE92550279CDDF890A037
:103D900025F0004624F00048BAF1000F14BF0121BD
:103DA000002101EB4502FC4953184A1093422AD3E3
:103DB000002814BF0123002303EB44030B44F749FD
:103DC0008B4220D358EA00019FEDF59B76D0DFF8B7
:103DD000D8B35D4503D1BAF1000F05D188E0BAF13F
:103DE000000F08BF002100D0012101EB450111F5B2
:103DF000001F08D8002814BF0121002101EB440155
:103E000011F5001F0BD99DED261B9DED240B16B05F
:103E1000BDEC0E8B04B0BDE8F04D00F073BE002782
:103E2000002DBCBFE149884521DAE1498845A8BF9A
:103E300002271CDAC3451ADCDE4901EB285114299C
:103E400008DDC1F1340220FA02F101FA02F28242E5
:103E50000DD108E058B9C1F1140228FA02F101FAB3
:103E600002F2424503D101F00101C1F1020756EA15
:103E70000A0124D1002C22DA002D18BF022F01D014
:103E8000012F0AD00220FCF769FD16B0BDEC0E8BA5
:103E900004B0BDE8F04D00F013BE0220FCF75EFD5B
:103EA00000F00EFE51EC100B05F046FA41EC100B41
:103EB00016B0BDEC0E8B04B0BDE8F08D18E09FEDA0
:103EC000BEAB9FEDBF8B002871D1B848804522D191
:103ED00005F1804010F5801008BFBAF1000F07D03F
:103EE000B3450ADC002CA8BF9DED260BE0DA0DE0FF
:103EF000B0EE490AF0EE690ADAE7002C06DA9DED29
:103F0000260B51EC100B05F017FA6FE0AE48784421
:103F100090ED000BCCE7D8454DD1002C48DA2EB1FE
:103F200086423AD1BAF1000F42D126E0BAF1000F31
:103F300013D00220FCF712FD00F0FEFD8DED020B08
:103F40009DED240B8DED000B10EE900A039961F3AB
:103F50001E0003909DED020BAAE78DED02AB9DEDD7
:103F6000240B1AEE901A10EE900A8DED000B61F3FF
:103F70001E0003909DED020B9AE78DED028B9DEDE7
:103F8000240B18EE901A10EE900A8DED000B61F3E1
:103F90001E0003909DED020B8AE709DA9DED240BCC
:103FA00051EC190B53EC102B05F0C0FA1EE020E089
:103FB0009DED240B7CE786421BDAB4F1804F0DD0D7
:103FC000A4F10050B0F1FF5013D1002D11DB9DED95
:103FD000240B51EC100B03F07FFF07E09DED240B49
:103FE00053EC102B51EC100B00F0C2BC41EC100B49
:103FF0005EE79DED240B51EC100B01F0A6FCBAF12D
:10400000000FCDE90E0142D19FED710B46B3A6F131
:10401000E040B0F17F600CD05E4538D1002D00DA71
:10402000A7B3022F0CBF01204FF0FF3005F0D6FBE5
:10403000DCE7002D01DD002C0DDA002D01DD002C68
:104040001FDB002D16DA002C14DB012F08BF9FEDBB
:10405000620B3FF42DAFB0EE4A0AF0EE6A0A27E792
:10406000022F18BF002D0CD0012F0AD1002DFFF612
:104070001FAF06E0002DB8BF002C08DA012F3FF477
:1040800017AFB0EE480AF0EE680A11E71BE0012016
:1040900000EBE57050EA070115D0791EB0EE498AB1
:1040A000F0EE698A084308BF9FED4D8B4E4800250E
:1040B000804570DD4D494E48884514DDB0420DDB2A
:1040C000002C19DB2FE00120FCF748FC16B0BDECFA
:1040D0000E8B04B0BDE8F04D00F01EBDB34502DC10
:1040E000002C09DC1FE0864202DA002C1BDA03E018
:1040F0005E452BDD002C16DD0220FCF72FFC00F0C6
:104100001BFD8DED020B53EC1A2B51EC180B05F037
:10411000CBFBCDE900010399019861F31E000390E8
:104120009DED020BC4E60220FCF718FC00F014FD24
:1041300010EE901A18EE900A8DED020B8DED008BAB
:1041400061F31E0003909DED020BB1E69DED0E0B99
:1041500053EC192B51EC100B05F0B2FD9FED260B23
:10416000CDE9080153EC102B9DED080B51EC100B21
:1041700005F09AFB9FED221B53EC112B05F0C8FCB8
:104180009DED081B53EC112B05F08EFB9FED1E1BC4
:1041900053EC112B3CE08CE0FFFF1F00FFFF0F00F2
:1041A000000000000000F03F0000F03F0000F07F42
:1041B0000000404301FCFFFF000000000000F07F12
:1041C00000000000000000004E6F00000000000032
:1041D0000000000000000080000000000000F0FF70
:1041E000000000000000F0BF0000E0410000F043CC
:1041F000FFFFEF3F00000000000000000000D03F84
:10420000555555555555D53F000000000000E03F7D
:1042100005F07EFC9DED080B41EC1A0B53EC102BC6
:1042200051EC100B05F040FB53EC1A2B05F03CFB56
:1042300041EC1A0B9FEDFE0B53EC102B9DED080B80
:1042400051EC100B05F030FB41EC1B0B9FEDFA0B12
:1042500051EC1A0B53EC102B05F026FB41EC1A0B1A
:104260009FEDF70B53EC102B9DED080B51EC100B51
:1042700005F01AFB53EC1A2B05F022FD41EC1A0B4A
:1042800051EC1B0B53EC1A2B05F094F80690CDE97A
:1042900006519DED060B53EC1B2B51EC100B05F05A
:1042A0000FFD53EC1A2B05F033FC41EC100B00F022
:1042B000A1B90020B6F5801F0EDA9FEDE30B53EC99
:1042C000102B9DED0E0B51EC100B05F0EDFACDE926
:1042D0000E016FF034000E4600EB2650A0F2FF37BF
:1042E000C6F31300DA4940F07F6646F04056884234
:1042F000D8BF002408DDD7498142C8BF012403DCB0
:104300000024A6F580167F1CD348784400EBC40037
:104310000F9690ED00CB9DED0E0B53EC1C2B51EC4A
:10432000100B05F0CDFC9DED0E0B41EC1B0B53EC7F
:104330001C2B51EC100B05F03DF841EC100B51EC2F
:10434000190B53EC102B05F0F1F841EC1D0B51EC5F
:104350001B0B53EC1D2B05F0A7FA41EC1A0BBF48C1
:104360008DED10AB7844109590ED000B4FF00050A0
:1043700040EA660000EB84408DED080B00F500205C
:1043800009909DED080B53EC1C2B51EC100B05F024
:1043900097FC9DED0E1B53EC112B05F0B9FB41EC86
:1043A000100B53EC102B9DED100B51EC100B05F086
:1043B0007BFA9DED080B41EC1C0B53EC102B9DED93
:1043C000100B51EC100B05F06FFA53EC1B2B05F0A2
:1043D0009FFB53EC1C2B05F073FC53EC1D2B05F0DD
:1043E00063FA41EC1C0B53EC1A2B51EC1A0B05F041
:1043F0005BFA41EC1B0B9A480621B0EE4B0AF0EE3B
:104400006B0A784400F0E0FAB0EE401AF0EE601A61
:10441000B0EE41DAF0EE61DA53EC1B2B51EC1B0BE2
:1044200005F042FA53EC1D2B05F03EFA9DED100B02
:1044300041EC1B0B53EC1A2B51EC100B04F0BAFFA0
:1044400053EC1C2B05F030FA53EC1B2B04F0B2FF9D
:104450009DED100B41EC1B0B53EC102B51EC100B92
:1044600005F022FA41EC1D0B9FED7FEB53EC1E2B68
:1044700004F0A0FF53EC1B2B04F09CFF0890CDE947
:1044800008519DED080B53EC1E2B51EC100B05F061
:1044900017FC53EC1D2B05F013FC53EC1B2B05F004
:1044A00037FB9DED080B41EC1D0B53EC102B9DEDE4
:1044B000100B51EC100B05F0F7F941EC1B0B53EC12
:1044C0001A2B51EC1D0B05F0EFF99DED080B41EC9B
:1044D0001A0B53EC102B51EC1C0B05F0E5F953ECC7
:1044E0001A2B04F067FF41EC1A0B51EC1B0B53EC39
:1044F0001A2B04F05FFF0C90CDE90C519DED0C0BD5
:1045000053EC1B2B51EC100B05F0DAFB53EC1A2B80
:1045100005F0FEFA41EC1B0B9FED550B53EC102BF5
:104520009DED0C0B51EC100B05F0BEF941EC1A0B94
:104530009FED510B51EC1B0B53EC102B05F0B4F914
:1045400041EC1B0B9FED4E0B53EC102B9DED0C0B18
:1045500051EC100B05F0A8F953EC1B2B04F02AFFCB
:1045600041EC100B4848784400EBC40090ED001B70
:1045700051EC100B53EC112B04F01CFF41EC1B0B06
:10458000384605F02BF9CDE9080153EC1B2B51EC13
:104590001A0B04F00FFF41EC100B3C48784400EB81
:1045A000C40090ED00CB51EC100B53EC1C2B04F02D
:1045B00001FF9DED081B53EC112B04F0FBFE069050
:1045C000CDE906519DED080B53EC102B9DED060B2C
:1045D00051EC100B05F074FB53EC1C2B05F070FB39
:1045E00053EC1A2B05F06CFB53EC1B2B05F090FAE7
:1045F00041EC100B9DED261B53EC102B8DED001B99
:1046000000959DED260B51EC100B05F04DF99DED3D
:10461000000B41EC1A0B53EC102B9DED260B51ECCB
:10462000100B05F04DFB9DED061B53EC112B2FE0FD
:10463000000000604715F73FFE822B654715F73FE6
:1046400044DF5DF80BAE543E000000000000404324
:104650008E9803007AB60B00326A0000F86A0000F8
:104660006A6900000000000000000000000008402F
:10467000000000E009C7EE3FFD033ADC09C7EE3F4A
:10468000F5015B14E02F3EBEF6670000B067000046
:1046900005F00AF953EC1A2B04F08CFE9DED060B85
:1046A00041EC1A0B53EC102B9DED000B51EC100B51
:1046B00005F0FAF8CDE90C019DED0C0B51EC1A0B4D
:1046C00053EC102B04F076FECDE902010C46AA490A
:1046D0008C422FDB611A084318D19DED0C0B53EC73
:1046E000102B9DED020B51EC100B05F0E9FA41EC9B
:1046F0001B0B9FEDA30B51EC1A0B53EC102B04F08A
:1047000059FE53EC1B2B05F0CDF92DD20220FCF7FE
:1047100025F900F011FA10EE901A18EE900A8DEDBE
:10472000020B8DED008B61F31E0003909DED020BDB
:10473000FFF7BEBB944A24F00041914214D3934941
:10474000214408437FF4EFAC9DED0C0B53EC102B90
:104750009DED020B51EC100B05F0B2FA53EC1A2B45
:1047600005F0A0F97FF6DFAC24F000408849894AC3
:10477000002601EB205182422BDA481C4FF48011B5
:1047800021FA00F02044844AC0F30A517A44A1F28D
:10479000FF3192ED000B814A8DED080BCA4020EAF3
:1047A0000202C0F3130040F48010C1F1140120FA9A
:1047B00001F60992002CB8BF76429DED080B53EC30
:1047C000102B9DED0C0B51EC100B05F079FACDE997
:1047D0000C019DED0C0B51EC1A0B53EC102B04F05B
:1047E000E9FD9FED6F0B0890CDE9085153EC102BBC
:1047F0009DED080B51EC100B05F056F841EC1B0B2E
:104800009FED690B53EC102B9DED080B51EC100B39
:1048100005F04AF89DED0C0B41EC1C0B53EC102BF2
:104820009DED080B51EC100B05F04AFA53EC1A2BD6
:1048300005F06EF99FED5E1B53EC112B05F034F87B
:1048400053EC1C2B04F0B6FD41EC1A0B51EC1B0B86
:1048500053EC1A2B04F0AEFDCDE902019DED020BE5
:1048600053EC1B2B51EC100B05F02AFA53EC1A2BCE
:1048700005F04EF99DED020B41EC1A0B53EC102B99
:1048800051EC100B05F010F8CDE908014A489DEDF8
:10489000080B0521784400F097F89DED081B51ECBA
:1048A000100B53EC112B04F0FFFF9DED021B53EC9A
:1048B000112B05F02DF9CDE906019DED020B53EC0E
:1048C0001A2B51EC100B04F0EFFF53EC1A2B04F0F1
:1048D00071FD9FED3B0B41EC1A0B53EC102B9DED42
:1048E000060B51EC100B05F0EBF99DED060B41ECBE
:1048F0001B0B53EC102B9DED020B51EC100B04F035
:10490000D3FF53EC1B2B04F011FE53EC1A2B05F0D4
:10491000D7F99DED021B53EC112B05F0D1F953ECA7
:10492000192B05F0F5F8CDE9020101EB0650011550
:104930000029C8BF039015DC9DED020B324651ECF7
:10494000100B05F056FBFEF7EBFD042808BF00F046
:1049500003F932469DED020B51EC100B05F049FBBB
:10496000CDE902019DED020B51EC180B53EC102B1D
:1049700004F09AFFFFF73ABB0000904000000000EF
:10498000FE822B654715973C00CC904000346F3F6A
:1049900001FCFFFF0000E03FD0660000FFFF0F00BA
:1049A00000000000432EE63F396CA80C615C20BE7D
:1049B000EF39FAFE422EE63F0865000000000000D5
:1049C000000000000000004070B504462DED028B91
:1049D0004D1E00EBC500B0EE408AF0EE608A90ED0F
:1049E000000B35F0060017D053EC182B51EC100BD0
:1049F00004F05AFF41EC100B6D1E04EBC50090ED66
:104A0000001B51EC100B53EC112B04F0D3FC41ECC8
:104A1000100B35F00600E7D1022D36D0042D1CD046
:104A2000062D1CBFBDEC028B70BD53EC182B51EC56
:104A3000100B04F039FF94ED0A1B53EC112B04F01A
:104A4000B9FC53EC182B04F02FFF94ED081B53EC2A
:104A5000112B04F0AFFC41EC100B53EC182B51EC74
:104A6000100B04F021FF94ED061B53EC112B04F006
:104A7000A1FC53EC182B04F017FF94ED040B53EC3E
:104A8000102B04F097FC41EC100B53EC182B51EC5D
:104A9000100B04F009FF94ED021B53EC112B04F0F2
:104AA00089FC53EC182B04F0FFFE94ED001B53EC33
:104AB000112B04F07FFCBDEC028B41EC100B70BDA0
:104AC0009FED070B10B553EC102B9FED070B51EC2E
:104AD000100B04F02BFD41EC100B10BD000000008A
:104AE0000000000000000000000000000000F03F97
:104AF00010B553EC102B51EC100B04F05BFC41ECA7
:104B0000100B10BD10B553EC112B51EC100B04F031
:104B100051FC41EC100B10BD9FED050B10B553EC93
:104B2000102B51EC100B04F001FD41EC100B10BDEB
:104B300000000000000000009FED050B10B553ECD5
:104B4000102B51EC100B04F0AFFE41EC100B10BD1C
:104B500000000000000000709FED050B10B553EC45
:104B6000102B51EC100B04F09FFE41EC100B10BD0C
:104B7000000000000000001030380A2801D2012097
:104B80007047002070477047FEB506460D4600246A
:104B9000684600F023FF00229FED1B1A6B4601219F
:104BA00056F8220055F82270C01B00D5404200EE96
:104BB000100A03EB8200B8EEC00AD0ED000A20EE26
:104BC000010AF5EEC00AF1EE10FA0DD0C0EE201A7F
:104BD000B7EE000A0D4F31EEC00AB0EEC00A10EE7B
:104BE000100AB84207DC09E010EE100A084F3844FA
:104BF000084FB84202D301FA02F00443521C032AC0
:104C0000CEDB2046FEBD000000008037295C0F3E51
:104C1000666666C19A99D90010B541EC100BFEF793
:104C200047FE51EC100B10BD2DE9F0412DED028B2C
:104C300084B0254A4178B3EE0E1A8846D163817854
:104C4000F5EE001A00EE101AF8EE400AB0EE410A36
:104C500010EEA10AF0EE410A82ED0D0AC178B0EE25
:104C6000408A00EE101AB8EE400A50EE210AC2ED5A
:104C70000E0A0079F0EE608A00EE100AB8EE400AE3
:104C800010EE211A82ED0C1A11EE100A05F002F94D
:104C900006460F4618EE900A05F0FCF804460D464D
:104CA00018EE100A05F0F6F841EC100B8DE8F00054
:104CB00053EC102B414605A0FBF79AFB04B0BDEC6A
:104CC000028BBDE8F0810000180000203E473E3E08
:104CD000426173696320446174612020256420254A
:104CE0006620256620256620200D0A00DFED251AA6
:104CF0007CB530EE612AB0EE000A70EEE10A234C7A
:104D000022EE002A20EE800AF6EE000ABCEEC22A4D
:104D1000A578BCEEC00A12EE101A8542CBB210EE96
:104D2000101A9FED190ACAB231EE400A20EE200A8D
:104D3000BCEEC00A10EE101AC9B208D1E5789D4247
:104D400005D12579954202D165798D4219D0A0709F
:104D5000E3702271617100248DF801408DF802002A
:104D60008DF804208DF803308DF80510684600F0AA
:104D700005F99DF8011008438DF80100684602F01E
:104D80006FFD7CBD000070C2000034C3180000201D
:104D900070B52DED048B054600249FED248B254E28
:104DA0009FED259A1FE05820FDF732FD4820FDF7C2
:104DB00039FCD6ED000A80EE890A10EE100A05F0E3
:104DC00069F841EC100BB3EE0A1A00F049F853EC05
:104DD000182B51EC100B04F0EDFA41EC180B642089
:104DE00003F082FA641CAC42DDDB00EE105AB8EE30
:104DF000C00A10EE100A05F04DF841EC100B51EC12
:104E0000180B53EC102B04F091FB04F0A1FA706224
:104E100005F040F8BDEC048B41EC100B07A0BDE899
:104E2000704053EC102BFBF7E3BA000000000000C9
:104E300000000000A001002000004842496E6620EA
:104E40003A202D3E2067657420746865207A65726B
:104E50006F2048696768202566200D0A2000000041
:104E60009FED0F1B10B553EC112B51EC100B04F000
:104E70005DFB41EC100B9FED0C1BFEF77DFF9FEDE2
:104E80000C1B51EC100B53EC112B04F041FE9FED69
:104E90000A1B53EC112B04F007FD41EC100B10BD65
:104EA0000000000000AA8F406C45D9CC955BC83F3C
:104EB000000000000000F03F9DD8899D58A5E54006
:104EC00010B5044600F06AF80146207800F00F02A1
:104ED0001D48914207D0816E491C8166BDE8104093
:104EE0001AA0FBF785BA016F491C0167207800F012
:104EF000F0011BA0FBF77CFA207800F0F000001115
:104F00000B281AD2DFE800F006190A0E1219191937
:104F1000191916002046FFF787FE0EE0204602F022
:104F200015F80AE0204603F055F806E0204601F0A7
:104F300009FF02E0204602F07BFDBDE810404FF47F
:104F400000610D48FCF7A7BE9800002047464C5969
:104F50002D3E20526563204552524F52200D0A00CB
:104F600047464C592D3E2052656320494420202558
:104F700078200D0A000000000008024030B5002330
:104F800005461C46E818807800F0D2FC2043400615
:104F9000040E5B1C032BF5DB204630BD30B500232F
:104FA00005461C46E818407800F0C2FC2043400645
:104FB000040E5B1C032BF5DB204630BD08B560B149
:104FC00020208DF8000028208DF8010030208DF879
:104FD000020038208DF8030004E0A3220421684673
:104FE000FBF7EBFB6A46042140F69E2001F038FEF9
:104FF00001F002FB08BD00003EB5044602208DF81A
:105000000000CA208DF80100E3208DF8020009207D
:105010008DF803006A460421682001F021FEA320D8
:105020008DF80000610609D5C0218DF80110C82156
:105030008DF80210C2218DF8031005E08DF80100F3
:105040008DF802008DF8030014F4C07F09D0C4214C
:105050008DF80410CC218DF80510C6218DF80610AE
:1050600005E08DF804008DF805008DF806008DF838
:1050700008008DF807008DF809006A460A2140F6FD
:10508000A72001F0EDFDA0074FF0D80503D02020A8
:105090008DF8000001E08DF800506A46012140F6CD
:1050A000B62001F0DDFDA00601D5012000E00020C2
:1050B00000F090F814F4C07F1ED0E0050AD5B220AD
:1050C0008DF800008B208DF80100B6208DF80200CD
:1050D0009B2009E0B0208DF8000080208DF80100B1
:1050E000B4208DF8020090208DF803006A46042158
:1050F00040F6A22001F0B4FDE0074FF40B6323D08B
:10510000F8208DF800006A460121184601F0A8FD3C
:10511000FA21072000F03CFB072000F007FB0120EC
:1051200000F024FB642000F0E3FB4FF4FA7000F081
:10513000EFFBC821254800F0C1FA282000F0D6FA7C
:105140000A2000F0E3FA06E08DF800506A460121DB
:10515000184601F085FDA00703D5D9208DF8000081
:1051600001E08DF800506A46012140F23D7001F0E7
:1051700077FD600701D5012000E0002000F046F82F
:10518000E00601D5012000E00020FFF717FF104DD9
:1051900044F00800688101F02FFA0020A87360062F
:1051A00001D50620A87314F4C07F02D0A87B801D0F
:1051B000A87314F0140F02D0A87B1030A873A007B6
:1051C00002D0A87B001DA87300203EBD09E3CA02DF
:1051D0008C0200200EB54FF4976308B105A000E0E3
:1051E00007A007C88DE807006A460921184601F0A4
:1051F00037FD0EBDB8AAB38DB4980D355D00000023
:10520000B8AAAAAAB088C3C5C700000008B560B193
:10521000C0208DF80000C2208DF80100C4208DF858
:105220000200C6208DF8030004E08B2204216846AA
:10523000FBF7C3FA6A46042140F6982001F010FDFE
:1052400001F0DAF908BD0000C8234FF4806202497A
:1052500040F6F63001F098B8D0A000082DE9FF4FD5
:1052600089B01646DDE916520024DFF838810F4672
:1052700081462C80A24698F80E00694601F032F96A
:105280004FF0FF3B18B158460DB0BDE8F08FB8F8AD
:105290000A0010F0140F3ED0009909BA21F0FF0C5B
:1052A0009DF803104CEA010CC6F800C0019909BA38
:1052B00021F0FF039DF807100B43736002999DF8DE
:1052C0000B2009BA21F0FF011143B160039A9DF848
:1052D0000F4012BA22F0FF022243F26010241B1486
:1052E00009144FEA2C46121416FB06F613FB03634F
:1052F00011FB01F112FB02111944A1F17061B1F12E
:10530000007F04D901F078F9A5F800A0BBE729884F
:1053100041F48071298041066A460ED51119A41DF9
:105320000B885BBA3B804B885BBA7B80898849BA23
:10533000B980298841F00801298010F4C07F11D07C
:105340001119A41D0B885BBAA9F800304B885BBA11
:10535000A9F80230898849BAA9F80410298841F0CF
:1053600070012980800718D01444E07800F0C0054F
:1053700000F03F016078C00707D0C80801F00701BE
:10538000D8F80020491C02B190476078000704D586
:10539000D8F8041009B1A80988470C9801F08AFCD4
:1053A000002071E78C0200202DE9FF41044603A88C
:1053B00000F09AFEBDF80C00420CC3032F4801898F
:1053C00001F003004D0754F8200000D54042C1F31E
:1053D000C1058E0654F8255000D56D42C1F38116E3
:1053E000C90554F8264000D56442A0FB0367C117E5
:1053F00001FB037100FB0210810041EA9670A5FBDE
:105400000367E91701FB037105FB02118D0045EAF3
:105410009671A4FB0367E51705FB037304FB0232D7
:10542000930043EA9672030E8DF80030030C8DF85A
:105430000130030A8DF802308DF80300080E8DF854
:105440000400080C8DF80500080A8DF80600100EFF
:105450008DF80800100C8DF80900100A8DF80A006C
:105460008DF807108DF80B206A460C214FF425703B
:1054700001F0F6FB04B0BDE8F08100008C020020D2
:1054800030B5044613A185B007C98DE807004FF079
:10549000FF35C82C16D8C820B0FBF4F1491E080A05
:1054A0008DF80C008DF80D1003AA022140F2162091
:1054B00001F0D6FB30B96A460C2140F6C12001F05C
:1054C000CFFB10B1284605B030BD054884810020CF
:1054D000F9E70000FEF2ABC4AAF1DFDFBBAFDFDF0C
:1054E0008C020020F8B53049098901F0030250F818
:1054F00022404A0700D56442C1F3C10250F822306D
:105500008A0600D55B42C1F3811250F82220C805FB
:1055100000D55242254984FB0140850045EA94703C
:1055200083FB014382FB0121950F45EA8105010EB2
:105530008DF80010010C8DF80110010A8DF8021091
:10554000A40F8DF8030044EA83046A4604214FF453
:10555000747001F085FB4FF0FF3688B9200E8DF88E
:105560000000200C8DF80100200A8DF802008DF853
:1055700003406A4604214FF4757001F071FB08B1D5
:105580003046F8BD280E8DF80000280C8DF801007B
:10559000280A8DF802008DF803506A4604214FF462
:1055A000767001F05DFBF8BD8C02002009E3CA02B1
:1055B0002DE9FF4104463CA002AB006802903BA0ED
:1055C000006803903AA006683AA0056804F003005A
:1055D000195C8DF80010C4F3C1015A5C8DF80120EC
:1055E000C4F381129B5C8DF8023003AB185C8DF81C
:1055F0000400585C8DF80500985C8DF806006A463A
:10560000032140F2264001F02BFB4FF0FF37E0BBB7
:1056100001AA032140F22A4001F022FBA8BBCDE9F8
:10562000006560070BD59DF8000040F001008DF883
:1056300000009DF8040040F001008DF80400A00671
:105640000BD59DF8010040F001008DF801009DF898
:10565000050040F001008DF80500E0050BD59DF830
:10566000020040F001008DF802009DF8060040F0B5
:1056700001008DF806006A4603214FF4886001F0AE
:10568000EFFA10B901AA032100E004E040F2314032
:1056900001F0E6FA18B1384604B0BDE8F0810648DA
:1056A00004810020F8E700004CCD6C000CC92C00F0
:1056B00036567600264666008C0200204FF47A7239
:1056C00090FBF2F008B54843010E8DF80010010C74
:1056D0008DF80110010A8DF802108DF803006A465A
:1056E00004214FF4AE7001F0BBFA08BD0521B0FBF8
:1056F000F1F008B5010A8DF800108DF801006A4636
:1057000002214FF4AD7001F0ABFA08BD0521B0FBEA
:10571000F1F008B5010A8DF800108DF801006A4615
:1057200002214FF4AC7001F09BFA08BD08B50021CE
:105730008DF80010C10702D030218DF800108107CC
:1057400005D59DF8001041F00C018DF800104007C0
:1057500005D59DF8000040F003008DF800006A4672
:1057600001214FF4A47001F07BFA08BD08B560B1C7
:10577000042800D90420401E8DF800006A4601214B
:1057800040F24F1001F06CFA08BD0120F3E7000071
:1057900070B504462DED028B82B040074FF0FF3507
:1057A0007ED0B1F5C86F7BD800EE101AB8EE400A73
:1057B000DFED460A01A880EE208A00F077FC9DF814
:1057C0000400022806D0042810D0082835D010285C
:1057D00074D13EE09FED3E0A28EE000ABCEEC00AFE
:1057E00010EE100A9FED3B0A82B20AE09FED3A0AE2
:1057F00028EE000ABCEEC00A10EE100A9FED370A30
:1058000082B228EE000A6E46BCEEC00A10EE100A04
:1058100081B2100A8DF800008DF80120080A8DF879
:1058200002008DF80310E00726D0324602214FF423
:10583000EA7001F015FA98BB17E09FED290A28EEEF
:10584000000ABCEEC00A10EE100A9FED260A82B2D2
:10585000D7E79FED250A28EE000ABCEEC00A10EE3D
:10586000100A9FED220A82B2CBE7B21C02214FF44C
:10587000927001F0F5F998B9A0070DD56A4602219A
:105880004FF4EC7001F0ECF950B9B21C02214FF466
:10589000947001F0E5F918B9600714D56A4600E084
:1058A0000CE002214FF4EE7001F0DAF930B9B21CCD
:1058B00002214FF4967001F0D3F920B1284602B0CE
:1058C000BDEC028B70BD0020F9E7000000004843EA
:1058D0000000804600004046000000460000C04531
:1058E0000000804500004045000000450000C04425
:1058F0000521B0FBF1F008B5010A8DF800108DF814
:1059000001006A4602214FF4EF7001F0A9F908BDC9
:105910000521B0FBF1F008B5010A8DF800108DF8F3
:1059200001006A4602214FF4ED7001F099F908BDBB
:10593000002104E000F001021144C9B2400800282F
:10594000F8D141F30000401C704782B0CDE900015E
:1059500021F0004001909DED000B02B051EC100BC6
:105960007047000004490A885206FCD5024AC1B2B9
:10597000121D1180704700000014014010B558201E
:105980002DED028BFCF744FF4820FCF74BFE114C39
:10599000606A04F07FFAD4ED000A9FED0F1A41EC23
:1059A000180B80EE810A10EE100A04F073FA41EC35
:1059B000100BB3EE0A1AFFF753FA53EC182B51EC05
:1059C000100B04F07DF903F0C3FCBDEC028B00EE7C
:1059D000100A10BDA0010020000048421CB504467A
:1059E00027486B46042240680D21007800F044FAF5
:1059F00008B107201CBD9DF800001C2101EAD0025F
:105A00009DF803009FED1F1AC0F301131A438DF890
:105A100004209DF80120C0F3810301EAD2021A4359
:105A20008DF805209DF8022000F0030001EAD20164
:105A300001438DF80610DFED141A9FED140A0021C2
:105A400001A8425C22B104EB8103C3ED001A0AE015
:105A500004EB810282ED001A0BE0D3ED000A60EE48
:105A6000800AC3ED000A425C521E12F0FF0242544B
:105A7000F3D1491CC9B20329E3D300201CBD0000A7
:105A800070010020000000007B14AE3E1D5A843FD0
:105A90002DE9FE4F05460120C14E8DF800004FF064
:105AA00000088DF8018030680C461746817C7068CC
:105AB0006B460222007800F023FA4FF0FF3A0028EC
:105AC0007AD1C82002F010FC8DF8008030686B4657
:105AD0000122C17B7068007800F012FA0028EFD133
